{
  "_format": "hh-sol-artifact-1",
  "contractName": "BuyMyRoom",
  "sourceName": "contracts/BuyMyRoom.sol",
  "abi": [
    {
      "inputs": [
        {
          "internalType": "string",
          "name": "name",
          "type": "string"
        },
        {
          "internalType": "string",
          "name": "symbol",
          "type": "string"
        }
      ],
      "stateMutability": "nonpayable",
      "type": "constructor"
    },
    {
      "anonymous": false,
      "inputs": [
        {
          "indexed": false,
          "internalType": "uint256",
          "name": "houseId",
          "type": "uint256"
        },
        {
          "indexed": true,
          "internalType": "address",
          "name": "buyer",
          "type": "address"
        },
        {
          "indexed": false,
          "internalType": "uint256",
          "name": "fee",
          "type": "uint256"
        }
      ],
      "name": "FeeTransferred",
      "type": "event"
    },
    {
      "anonymous": false,
      "inputs": [
        {
          "indexed": false,
          "internalType": "uint256",
          "name": "tokenId",
          "type": "uint256"
        },
        {
          "indexed": false,
          "internalType": "uint256",
          "name": "price",
          "type": "uint256"
        },
        {
          "indexed": false,
          "internalType": "address",
          "name": "owner",
          "type": "address"
        }
      ],
      "name": "HouseListed",
      "type": "event"
    },
    {
      "anonymous": false,
      "inputs": [
        {
          "indexed": false,
          "internalType": "uint256",
          "name": "tokenId",
          "type": "uint256"
        },
        {
          "indexed": false,
          "internalType": "address",
          "name": "buyer",
          "type": "address"
        },
        {
          "indexed": false,
          "internalType": "uint256",
          "name": "price",
          "type": "uint256"
        }
      ],
      "name": "OnBuy",
      "type": "event"
    },
    {
      "inputs": [
        {
          "internalType": "address",
          "name": "",
          "type": "address"
        }
      ],
      "name": "AirDropped",
      "outputs": [
        {
          "internalType": "bool",
          "name": "",
          "type": "bool"
        }
      ],
      "stateMutability": "view",
      "type": "function"
    },
    {
      "inputs": [],
      "name": "airdrop",
      "outputs": [],
      "stateMutability": "nonpayable",
      "type": "function"
    },
    {
      "inputs": [
        {
          "internalType": "uint256",
          "name": "houseId",
          "type": "uint256"
        }
      ],
      "name": "buyHouse",
      "outputs": [
        {
          "internalType": "bool",
          "name": "",
          "type": "bool"
        }
      ],
      "stateMutability": "payable",
      "type": "function"
    },
    {
      "inputs": [
        {
          "internalType": "uint256",
          "name": "houseId",
          "type": "uint256"
        }
      ],
      "name": "buyHouseUseERC20",
      "outputs": [
        {
          "internalType": "bool",
          "name": "",
          "type": "bool"
        }
      ],
      "stateMutability": "payable",
      "type": "function"
    },
    {
      "inputs": [
        {
          "internalType": "uint256",
          "name": "amount",
          "type": "uint256"
        }
      ],
      "name": "getERC20",
      "outputs": [
        {
          "internalType": "bool",
          "name": "",
          "type": "bool"
        }
      ],
      "stateMutability": "payable",
      "type": "function"
    },
    {
      "inputs": [
        {
          "internalType": "uint256",
          "name": "houseId",
          "type": "uint256"
        }
      ],
      "name": "getHouseInfo",
      "outputs": [
        {
          "components": [
            {
              "internalType": "uint256",
              "name": "tokenId",
              "type": "uint256"
            },
            {
              "internalType": "address",
              "name": "owner",
              "type": "address"
            },
            {
              "internalType": "uint256",
              "name": "listedTimestamp",
              "type": "uint256"
            },
            {
              "internalType": "uint256",
              "name": "price",
              "type": "uint256"
            },
            {
              "internalType": "bool",
              "name": "onSale",
              "type": "bool"
            },
            {
              "internalType": "uint256",
              "name": "onSaleTimestamp",
              "type": "uint256"
            }
          ],
          "internalType": "struct BuyMyRoom.House",
          "name": "",
          "type": "tuple"
        }
      ],
      "stateMutability": "view",
      "type": "function"
    },
    {
      "inputs": [],
      "name": "getManager",
      "outputs": [
        {
          "internalType": "address",
          "name": "",
          "type": "address"
        }
      ],
      "stateMutability": "view",
      "type": "function"
    },
    {
      "inputs": [],
      "name": "getMyERC20",
      "outputs": [
        {
          "internalType": "uint256",
          "name": "",
          "type": "uint256"
        }
      ],
      "stateMutability": "view",
      "type": "function"
    },
    {
      "inputs": [],
      "name": "getMyHouses",
      "outputs": [
        {
          "components": [
            {
              "internalType": "uint256",
              "name": "tokenId",
              "type": "uint256"
            },
            {
              "internalType": "address",
              "name": "owner",
              "type": "address"
            },
            {
              "internalType": "uint256",
              "name": "listedTimestamp",
              "type": "uint256"
            },
            {
              "internalType": "uint256",
              "name": "price",
              "type": "uint256"
            },
            {
              "internalType": "bool",
              "name": "onSale",
              "type": "bool"
            },
            {
              "internalType": "uint256",
              "name": "onSaleTimestamp",
              "type": "uint256"
            }
          ],
          "internalType": "struct BuyMyRoom.House[]",
          "name": "",
          "type": "tuple[]"
        }
      ],
      "stateMutability": "view",
      "type": "function"
    },
    {
      "inputs": [],
      "name": "getSellingHouses",
      "outputs": [
        {
          "components": [
            {
              "internalType": "uint256",
              "name": "tokenId",
              "type": "uint256"
            },
            {
              "internalType": "address",
              "name": "owner",
              "type": "address"
            },
            {
              "internalType": "uint256",
              "name": "listedTimestamp",
              "type": "uint256"
            },
            {
              "internalType": "uint256",
              "name": "price",
              "type": "uint256"
            },
            {
              "internalType": "bool",
              "name": "onSale",
              "type": "bool"
            },
            {
              "internalType": "uint256",
              "name": "onSaleTimestamp",
              "type": "uint256"
            }
          ],
          "internalType": "struct BuyMyRoom.House[]",
          "name": "",
          "type": "tuple[]"
        }
      ],
      "stateMutability": "view",
      "type": "function"
    },
    {
      "inputs": [
        {
          "internalType": "uint256",
          "name": "",
          "type": "uint256"
        }
      ],
      "name": "houses",
      "outputs": [
        {
          "internalType": "uint256",
          "name": "tokenId",
          "type": "uint256"
        },
        {
          "internalType": "address",
          "name": "owner",
          "type": "address"
        },
        {
          "internalType": "uint256",
          "name": "listedTimestamp",
          "type": "uint256"
        },
        {
          "internalType": "uint256",
          "name": "price",
          "type": "uint256"
        },
        {
          "internalType": "bool",
          "name": "onSale",
          "type": "bool"
        },
        {
          "internalType": "uint256",
          "name": "onSaleTimestamp",
          "type": "uint256"
        }
      ],
      "stateMutability": "view",
      "type": "function"
    },
    {
      "inputs": [],
      "name": "myERC20",
      "outputs": [
        {
          "internalType": "contract MyERC20",
          "name": "",
          "type": "address"
        }
      ],
      "stateMutability": "view",
      "type": "function"
    },
    {
      "inputs": [],
      "name": "myERC721",
      "outputs": [
        {
          "internalType": "contract MyERC721",
          "name": "",
          "type": "address"
        }
      ],
      "stateMutability": "view",
      "type": "function"
    },
    {
      "inputs": [
        {
          "internalType": "uint256",
          "name": "houseId",
          "type": "uint256"
        },
        {
          "internalType": "uint256",
          "name": "price",
          "type": "uint256"
        }
      ],
      "name": "saleHouse",
      "outputs": [
        {
          "internalType": "bool",
          "name": "",
          "type": "bool"
        }
      ],
      "stateMutability": "nonpayable",
      "type": "function"
    },
    {
      "inputs": [
        {
          "internalType": "uint256",
          "name": "",
          "type": "uint256"
        }
      ],
      "name": "users",
      "outputs": [
        {
          "internalType": "address",
          "name": "",
          "type": "address"
        }
      ],
      "stateMutability": "view",
      "type": "function"
    }
  ],
  "bytecode": "0x608060405260006005553480156200001657600080fd5b506040516200687b3803806200687b83398181016040528101906200003c919062000326565b33600460006101000a81548173ffffffffffffffffffffffffffffffffffffffff021916908373ffffffffffffffffffffffffffffffffffffffff16021790555081816040516200008d9062000177565b6200009a92919062000408565b604051809103906000f080158015620000b7573d6000803e3d6000fd5b50600160006101000a81548173ffffffffffffffffffffffffffffffffffffffff021916908373ffffffffffffffffffffffffffffffffffffffff160217905550604051620001069062000185565b6200011190620004e3565b604051809103906000f0801580156200012e573d6000803e3d6000fd5b50600260006101000a81548173ffffffffffffffffffffffffffffffffffffffff021916908373ffffffffffffffffffffffffffffffffffffffff16021790555050506200051a565b61251f8062002e8f83390190565b6114cd80620053ae83390190565b6000604051905090565b600080fd5b600080fd5b600080fd5b600080fd5b6000601f19601f8301169050919050565b7f4e487b7100000000000000000000000000000000000000000000000000000000600052604160045260246000fd5b620001fc82620001b1565b810181811067ffffffffffffffff821117156200021e576200021d620001c2565b5b80604052505050565b60006200023362000193565b9050620002418282620001f1565b919050565b600067ffffffffffffffff821115620002645762000263620001c2565b5b6200026f82620001b1565b9050602081019050919050565b60005b838110156200029c5780820151818401526020810190506200027f565b60008484015250505050565b6000620002bf620002b98462000246565b62000227565b905082815260208101848484011115620002de57620002dd620001ac565b5b620002eb8482856200027c565b509392505050565b600082601f8301126200030b576200030a620001a7565b5b81516200031d848260208601620002a8565b91505092915050565b6000806040838503121562000340576200033f6200019d565b5b600083015167ffffffffffffffff811115620003615762000360620001a2565b5b6200036f85828601620002f3565b925050602083015167ffffffffffffffff811115620003935762000392620001a2565b5b620003a185828601620002f3565b9150509250929050565b600081519050919050565b600082825260208201905092915050565b6000620003d482620003ab565b620003e08185620003b6565b9350620003f28185602086016200027c565b620003fd81620001b1565b840191505092915050565b60006040820190508181036000830152620004248185620003c7565b905081810360208301526200043a8184620003c7565b90509392505050565b7f4d79546f6b656e00000000000000000000000000000000000000000000000000600082015250565b60006200047b600783620003b6565b9150620004888262000443565b602082019050919050565b7f4d544b0000000000000000000000000000000000000000000000000000000000600082015250565b6000620004cb600383620003b6565b9150620004d88262000493565b602082019050919050565b60006040820190508181036000830152620004fe816200046c565b905081810360208301526200051381620004bc565b9050919050565b612965806200052a6000396000f3fe6080604052600436106100e85760003560e01c806382f728581161008a578063b14f1afd11610059578063b14f1afd14610309578063ca6628d314610334578063d500958414610371578063eddc42691461039c576100e8565b806382f728581461022f5780638f334e8d1461025f578063ad50f56d1461028a578063aeda852f146102c7576100e8565b80636d3739c4116100c65780636d3739c41461017e5780637042b0bc146101a957806371de15d8146101d4578063749a6930146101ff576100e8565b8063365b98b2146100ed5780633884d6351461012a57806363f78c9b14610141575b600080fd5b3480156100f957600080fd5b50610114600480360381019061010f9190611bb7565b6103cc565b6040516101219190611c25565b60405180910390f35b34801561013657600080fd5b5061013f61040b565b005b34801561014d57600080fd5b5061016860048036038101906101639190611c40565b6106b2565b6040516101759190611c9b565b60405180910390f35b34801561018a57600080fd5b50610193610867565b6040516101a09190611d15565b60405180910390f35b3480156101b557600080fd5b506101be61088d565b6040516101cb9190611e87565b60405180910390f35b3480156101e057600080fd5b506101e9610a78565b6040516101f69190611eb8565b60405180910390f35b61021960048036038101906102149190611bb7565b610b1b565b6040516102269190611c9b565b60405180910390f35b61024960048036038101906102449190611bb7565b6110bc565b6040516102569190611c9b565b60405180910390f35b34801561026b57600080fd5b50610274611208565b6040516102819190611ef4565b60405180910390f35b34801561029657600080fd5b506102b160048036038101906102ac9190611bb7565b61122e565b6040516102be9190611f8a565b60405180910390f35b3480156102d357600080fd5b506102ee60048036038101906102e99190611bb7565b6112f3565b60405161030096959493929190611fa5565b60405180910390f35b34801561031557600080fd5b5061031e61135c565b60405161032b9190611e87565b60405180910390f35b34801561034057600080fd5b5061035b60048036038101906103569190612032565b6115c7565b6040516103689190611c9b565b60405180910390f35b34801561037d57600080fd5b506103866115e7565b6040516103939190611c25565b60405180910390f35b6103b660048036038101906103b19190611bb7565b611611565b6040516103c39190611c9b565b60405180910390f35b600381815481106103dc57600080fd5b906000526020600020016000915054906101000a900473ffffffffffffffffffffffffffffffffffffffff1681565b60001515600660003373ffffffffffffffffffffffffffffffffffffffff1673ffffffffffffffffffffffffffffffffffffffff16815260200190815260200160002060009054906101000a900460ff1615151461049e576040517f08c379a0000000000000000000000000000000000000000000000000000000008152600401610495906120e2565b60405180910390fd5b6000805b6003811015610656576005549150600560008154809291906104c390612131565b9190505550600160009054906101000a900473ffffffffffffffffffffffffffffffffffffffff1673ffffffffffffffffffffffffffffffffffffffff166340c10f1933846040518363ffffffff1660e01b8152600401610525929190612179565b600060405180830381600087803b15801561053f57600080fd5b505af1158015610553573d6000803e3d6000fd5b505050506040518060c001604052808381526020013373ffffffffffffffffffffffffffffffffffffffff1681526020014281526020016000815260200160001515815260200160008152506000808481526020019081526020016000206000820151816000015560208201518160010160006101000a81548173ffffffffffffffffffffffffffffffffffffffff021916908373ffffffffffffffffffffffffffffffffffffffff160217905550604082015181600201556060820151816003015560808201518160040160006101000a81548160ff02191690831515021790555060a08201518160050155905050808061064e90612131565b9150506104a2565b506001600660003373ffffffffffffffffffffffffffffffffffffffff1673ffffffffffffffffffffffffffffffffffffffff16815260200190815260200160002060006101000a81548160ff02191690831515021790555050565b60007f60b3e540896cf4a419e7b7274a1f1282223f5d92ca6f0152cf820fe457fb48438383336040516106e7939291906121a2565b60405180910390a13373ffffffffffffffffffffffffffffffffffffffff1660008085815260200190815260200160002060010160009054906101000a900473ffffffffffffffffffffffffffffffffffffffff1673ffffffffffffffffffffffffffffffffffffffff1614610792576040517f08c379a00000000000000000000000000000000000000000000000000000000081526004016107899061224b565b60405180910390fd5b6000151560008085815260200190815260200160002060040160009054906101000a900460ff161515146107fb576040517f08c379a00000000000000000000000000000000000000000000000000000000081526004016107f2906122b7565b60405180910390fd5b600160008085815260200190815260200160002060040160006101000a81548160ff021916908315150217905550426000808581526020019081526020016000206005018190555081600080858152602001908152602001600020600301819055506001905092915050565b600260009054906101000a900473ffffffffffffffffffffffffffffffffffffffff1681565b60606000805b6005548110156108e75760008082815260200190815260200160002060040160009054906101000a900460ff16156108d45781806108d090612131565b9250505b80806108df90612131565b915050610893565b5060008167ffffffffffffffff811115610904576109036122d7565b5b60405190808252806020026020018201604052801561093d57816020015b61092a611b2e565b8152602001906001900390816109225790505b5090506000915060005b600554811015610a6f5760008082815260200190815260200160002060040160009054906101000a900460ff1615610a5c576000808281526020019081526020016000206040518060c0016040529081600082015481526020016001820160009054906101000a900473ffffffffffffffffffffffffffffffffffffffff1673ffffffffffffffffffffffffffffffffffffffff1673ffffffffffffffffffffffffffffffffffffffff16815260200160028201548152602001600382015481526020016004820160009054906101000a900460ff16151515158152602001600582015481525050828481518110610a4257610a41612306565b5b60200260200101819052508280610a5890612131565b9350505b8080610a6790612131565b915050610947565b50809250505090565b6000600260009054906101000a900473ffffffffffffffffffffffffffffffffffffffff1673ffffffffffffffffffffffffffffffffffffffff166370a08231336040518263ffffffff1660e01b8152600401610ad59190611c25565b602060405180830381865afa158015610af2573d6000803e3d6000fd5b505050506040513d601f19601f82011682018060405250810190610b16919061234a565b905090565b600080600083815260200190815260200160002060040160009054906101000a900460ff16610b7f576040517f08c379a0000000000000000000000000000000000000000000000000000000008152600401610b76906123c3565b60405180910390fd5b600080600084815260200190815260200160002060030154905080600260009054906101000a900473ffffffffffffffffffffffffffffffffffffffff1673ffffffffffffffffffffffffffffffffffffffff166370a08231336040518263ffffffff1660e01b8152600401610bf59190611c25565b602060405180830381865afa158015610c12573d6000803e3d6000fd5b505050506040513d601f19601f82011682018060405250810190610c36919061234a565b1015610c77576040517f08c379a0000000000000000000000000000000000000000000000000000000008152600401610c6e9061242f565b60405180910390fd5b6000600a82610c86919061247e565b905060008183610c9691906124af565b90503373ffffffffffffffffffffffffffffffffffffffff167ff2fd2ec424ad085bbd02e334ef97d3415579d9bd28248400a8b8789c8a1622a88684604051610ce09291906124e3565b60405180910390a2600260009054906101000a900473ffffffffffffffffffffffffffffffffffffffff1673ffffffffffffffffffffffffffffffffffffffff1663a9059cbb600460009054906101000a900473ffffffffffffffffffffffffffffffffffffffff16846040518363ffffffff1660e01b8152600401610d67929190612179565b6020604051808303816000875af1158015610d86573d6000803e3d6000fd5b505050506040513d601f19601f82011682018060405250810190610daa9190612538565b610de9576040517f08c379a0000000000000000000000000000000000000000000000000000000008152600401610de0906125d7565b60405180910390fd5b600260009054906101000a900473ffffffffffffffffffffffffffffffffffffffff1673ffffffffffffffffffffffffffffffffffffffff1663a9059cbb60008088815260200190815260200160002060010160009054906101000a900473ffffffffffffffffffffffffffffffffffffffff16836040518363ffffffff1660e01b8152600401610e7b929190612179565b6020604051808303816000875af1158015610e9a573d6000803e3d6000fd5b505050506040513d601f19601f82011682018060405250810190610ebe9190612538565b610efd576040517f08c379a0000000000000000000000000000000000000000000000000000000008152600401610ef490612669565b60405180910390fd5b600160009054906101000a900473ffffffffffffffffffffffffffffffffffffffff1673ffffffffffffffffffffffffffffffffffffffff1663beabacc860008088815260200190815260200160002060010160009054906101000a900473ffffffffffffffffffffffffffffffffffffffff1633886040518463ffffffff1660e01b8152600401610f9193929190612689565b600060405180830381600087803b158015610fab57600080fd5b505af1158015610fbf573d6000803e3d6000fd5b50505050600080600087815260200190815260200160002060040160006101000a81548160ff0219169083151502179055506000806000878152602001908152602001600020600501819055503360008087815260200190815260200160002060010160006101000a81548173ffffffffffffffffffffffffffffffffffffffff021916908373ffffffffffffffffffffffffffffffffffffffff1602179055507ff77369dac7dfdfd819eca561f5a88291527eb2f15c2390b07a64fbfba656eef18533600080898152602001908152602001600020600301546040516110a8939291906126c0565b60405180910390a160019350505050919050565b6000670de0b6b3a7640000826110d291906126f7565b341015611114576040517f08c379a000000000000000000000000000000000000000000000000000000000815260040161110b90612785565b60405180910390fd5b61dead73ffffffffffffffffffffffffffffffffffffffff166108fc670de0b6b3a76400008461114491906126f7565b9081150290604051600060405180830381858888f1935050505015801561116f573d6000803e3d6000fd5b50600260009054906101000a900473ffffffffffffffffffffffffffffffffffffffff1673ffffffffffffffffffffffffffffffffffffffff166340c10f1933846040518363ffffffff1660e01b81526004016111cd929190612179565b600060405180830381600087803b1580156111e757600080fd5b505af11580156111fb573d6000803e3d6000fd5b5050505060019050919050565b600160009054906101000a900473ffffffffffffffffffffffffffffffffffffffff1681565b611236611b2e565b6000808381526020019081526020016000206040518060c0016040529081600082015481526020016001820160009054906101000a900473ffffffffffffffffffffffffffffffffffffffff1673ffffffffffffffffffffffffffffffffffffffff1673ffffffffffffffffffffffffffffffffffffffff16815260200160028201548152602001600382015481526020016004820160009054906101000a900460ff161515151581526020016005820154815250509050919050565b60006020528060005260406000206000915090508060000154908060010160009054906101000a900473ffffffffffffffffffffffffffffffffffffffff16908060020154908060030154908060040160009054906101000a900460ff16908060050154905086565b60606000805b6005548110156113f6573373ffffffffffffffffffffffffffffffffffffffff1660008083815260200190815260200160002060010160009054906101000a900473ffffffffffffffffffffffffffffffffffffffff1673ffffffffffffffffffffffffffffffffffffffff16036113e35781806113df90612131565b9250505b80806113ee90612131565b915050611362565b5060008167ffffffffffffffff811115611413576114126122d7565b5b60405190808252806020026020018201604052801561144c57816020015b611439611b2e565b8152602001906001900390816114315790505b5090506000915060005b6005548110156115be573373ffffffffffffffffffffffffffffffffffffffff1660008083815260200190815260200160002060010160009054906101000a900473ffffffffffffffffffffffffffffffffffffffff1673ffffffffffffffffffffffffffffffffffffffff16036115ab576000808281526020019081526020016000206040518060c0016040529081600082015481526020016001820160009054906101000a900473ffffffffffffffffffffffffffffffffffffffff1673ffffffffffffffffffffffffffffffffffffffff1673ffffffffffffffffffffffffffffffffffffffff16815260200160028201548152602001600382015481526020016004820160009054906101000a900460ff1615151515815260200160058201548152505082848151811061159157611590612306565b5b602002602001018190525082806115a790612131565b9350505b80806115b690612131565b915050611456565b50809250505090565b60066020528060005260406000206000915054906101000a900460ff1681565b6000600460009054906101000a900473ffffffffffffffffffffffffffffffffffffffff16905090565b600080600083815260200190815260200160002060040160009054906101000a900460ff16611675576040517f08c379a000000000000000000000000000000000000000000000000000000000815260040161166c906123c3565b60405180910390fd5b60008083815260200190815260200160002060010160009054906101000a900473ffffffffffffffffffffffffffffffffffffffff1673ffffffffffffffffffffffffffffffffffffffff163373ffffffffffffffffffffffffffffffffffffffff1603611718576040517f08c379a000000000000000000000000000000000000000000000000000000000815260040161170f906127f1565b60405180910390fd5b6000670de0b6b3a76400006000808581526020019081526020016000206003015461174391906126f7565b90506000808481526020019081526020016000206003015434101561179d576040517f08c379a00000000000000000000000000000000000000000000000000000000081526004016117949061242f565b60405180910390fd5b6000600a826117ac919061247e565b9050600081836117bc91906124af565b90506000600460009054906101000a900473ffffffffffffffffffffffffffffffffffffffff1673ffffffffffffffffffffffffffffffffffffffff168360405161180690612842565b60006040518083038185875af1925050503d8060008114611843576040519150601f19603f3d011682016040523d82523d6000602084013e611848565b606091505b505090508061188c576040517f08c379a0000000000000000000000000000000000000000000000000000000008152600401611883906128a3565b60405180910390fd5b600080600088815260200190815260200160002060010160009054906101000a900473ffffffffffffffffffffffffffffffffffffffff1673ffffffffffffffffffffffffffffffffffffffff16836040516118e790612842565b60006040518083038185875af1925050503d8060008114611924576040519150601f19603f3d011682016040523d82523d6000602084013e611929565b606091505b505090508061196d576040517f08c379a00000000000000000000000000000000000000000000000000000000081526004016119649061290f565b60405180910390fd5b600160009054906101000a900473ffffffffffffffffffffffffffffffffffffffff1673ffffffffffffffffffffffffffffffffffffffff1663beabacc86000808a815260200190815260200160002060010160009054906101000a900473ffffffffffffffffffffffffffffffffffffffff16338a6040518463ffffffff1660e01b8152600401611a0193929190612689565b600060405180830381600087803b158015611a1b57600080fd5b505af1158015611a2f573d6000803e3d6000fd5b50505050600080600089815260200190815260200160002060040160006101000a81548160ff0219169083151502179055506000806000898152602001908152602001600020600501819055503360008089815260200190815260200160002060010160006101000a81548173ffffffffffffffffffffffffffffffffffffffff021916908373ffffffffffffffffffffffffffffffffffffffff1602179055507ff77369dac7dfdfd819eca561f5a88291527eb2f15c2390b07a64fbfba656eef187336000808b815260200190815260200160002060030154604051611b18939291906126c0565b60405180910390a1600195505050505050919050565b6040518060c0016040528060008152602001600073ffffffffffffffffffffffffffffffffffffffff1681526020016000815260200160008152602001600015158152602001600081525090565b600080fd5b6000819050919050565b611b9481611b81565b8114611b9f57600080fd5b50565b600081359050611bb181611b8b565b92915050565b600060208284031215611bcd57611bcc611b7c565b5b6000611bdb84828501611ba2565b91505092915050565b600073ffffffffffffffffffffffffffffffffffffffff82169050919050565b6000611c0f82611be4565b9050919050565b611c1f81611c04565b82525050565b6000602082019050611c3a6000830184611c16565b92915050565b60008060408385031215611c5757611c56611b7c565b5b6000611c6585828601611ba2565b9250506020611c7685828601611ba2565b9150509250929050565b60008115159050919050565b611c9581611c80565b82525050565b6000602082019050611cb06000830184611c8c565b92915050565b6000819050919050565b6000611cdb611cd6611cd184611be4565b611cb6565b611be4565b9050919050565b6000611ced82611cc0565b9050919050565b6000611cff82611ce2565b9050919050565b611d0f81611cf4565b82525050565b6000602082019050611d2a6000830184611d06565b92915050565b600081519050919050565b600082825260208201905092915050565b6000819050602082019050919050565b611d6581611b81565b82525050565b611d7481611c04565b82525050565b611d8381611c80565b82525050565b60c082016000820151611d9f6000850182611d5c565b506020820151611db26020850182611d6b565b506040820151611dc56040850182611d5c565b506060820151611dd86060850182611d5c565b506080820151611deb6080850182611d7a565b5060a0820151611dfe60a0850182611d5c565b50505050565b6000611e108383611d89565b60c08301905092915050565b6000602082019050919050565b6000611e3482611d30565b611e3e8185611d3b565b9350611e4983611d4c565b8060005b83811015611e7a578151611e618882611e04565b9750611e6c83611e1c565b925050600181019050611e4d565b5085935050505092915050565b60006020820190508181036000830152611ea18184611e29565b905092915050565b611eb281611b81565b82525050565b6000602082019050611ecd6000830184611ea9565b92915050565b6000611ede82611ce2565b9050919050565b611eee81611ed3565b82525050565b6000602082019050611f096000830184611ee5565b92915050565b60c082016000820151611f256000850182611d5c565b506020820151611f386020850182611d6b565b506040820151611f4b6040850182611d5c565b506060820151611f5e6060850182611d5c565b506080820151611f716080850182611d7a565b5060a0820151611f8460a0850182611d5c565b50505050565b600060c082019050611f9f6000830184611f0f565b92915050565b600060c082019050611fba6000830189611ea9565b611fc76020830188611c16565b611fd46040830187611ea9565b611fe16060830186611ea9565b611fee6080830185611c8c565b611ffb60a0830184611ea9565b979650505050505050565b61200f81611c04565b811461201a57600080fd5b50565b60008135905061202c81612006565b92915050565b60006020828403121561204857612047611b7c565b5b60006120568482850161201d565b91505092915050565b600082825260208201905092915050565b7f5468697320757365722068617320636c61696d65642061697264726f7020616c60008201527f7265616479000000000000000000000000000000000000000000000000000000602082015250565b60006120cc60258361205f565b91506120d782612070565b604082019050919050565b600060208201905081810360008301526120fb816120bf565b9050919050565b7f4e487b7100000000000000000000000000000000000000000000000000000000600052601160045260246000fd5b600061213c82611b81565b91507fffffffffffffffffffffffffffffffffffffffffffffffffffffffffffffffff820361216e5761216d612102565b5b600182019050919050565b600060408201905061218e6000830185611c16565b61219b6020830184611ea9565b9392505050565b60006060820190506121b76000830186611ea9565b6121c46020830185611ea9565b6121d16040830184611c16565b949350505050565b7f596f7520617265206e6f7420746865206f776e6572206f66207468697320686f60008201527f7573650000000000000000000000000000000000000000000000000000000000602082015250565b600061223560238361205f565b9150612240826121d9565b604082019050919050565b6000602082019050818103600083015261226481612228565b9050919050565b7f5468697320686f75736520697320616c7265616479206f6e2073616c65000000600082015250565b60006122a1601d8361205f565b91506122ac8261226b565b602082019050919050565b600060208201905081810360008301526122d081612294565b9050919050565b7f4e487b7100000000000000000000000000000000000000000000000000000000600052604160045260246000fd5b7f4e487b7100000000000000000000000000000000000000000000000000000000600052603260045260246000fd5b60008151905061234481611b8b565b92915050565b6000602082840312156123605761235f611b7c565b5b600061236e84828501612335565b91505092915050565b7f5468697320686f757365206973206e6f74206f6e2073616c6500000000000000600082015250565b60006123ad60198361205f565b91506123b882612377565b602082019050919050565b600060208201905081810360008301526123dc816123a0565b9050919050565b7f596f7520646f6e2774206861766520656e6f7567682062616c616e6365000000600082015250565b6000612419601d8361205f565b9150612424826123e3565b602082019050919050565b600060208201905081810360008301526124488161240c565b9050919050565b7f4e487b7100000000000000000000000000000000000000000000000000000000600052601260045260246000fd5b600061248982611b81565b915061249483611b81565b9250826124a4576124a361244f565b5b828204905092915050565b60006124ba82611b81565b91506124c583611b81565b92508282039050818111156124dd576124dc612102565b5b92915050565b60006040820190506124f86000830185611ea9565b6125056020830184611ea9565b9392505050565b61251581611c80565b811461252057600080fd5b50565b6000815190506125328161250c565b92915050565b60006020828403121561254e5761254d611b7c565b5b600061255c84828501612523565b91505092915050565b7f4661696c656420746f207472616e736665722066656520746f206d616e61676560008201527f7200000000000000000000000000000000000000000000000000000000000000602082015250565b60006125c160218361205f565b91506125cc82612565565b604082019050919050565b600060208201905081810360008301526125f0816125b4565b9050919050565b7f4661696c656420746f207472616e7366657220616d6f756e7420746f2073656c60008201527f6c65720000000000000000000000000000000000000000000000000000000000602082015250565b600061265360238361205f565b915061265e826125f7565b604082019050919050565b6000602082019050818103600083015261268281612646565b9050919050565b600060608201905061269e6000830186611c16565b6126ab6020830185611c16565b6126b86040830184611ea9565b949350505050565b60006060820190506126d56000830186611ea9565b6126e26020830185611c16565b6126ef6040830184611ea9565b949350505050565b600061270282611b81565b915061270d83611b81565b925082820261271b81611b81565b9150828204841483151761273257612731612102565b5b5092915050565b7f4e6f7420656e6f7567682062616c616e63650000000000000000000000000000600082015250565b600061276f60128361205f565b915061277a82612739565b602082019050919050565b6000602082019050818103600083015261279e81612762565b9050919050565b7f596f752063616e6e6f742062757920796f7572206f776e20686f757365000000600082015250565b60006127db601d8361205f565b91506127e6826127a5565b602082019050919050565b6000602082019050818103600083015261280a816127ce565b9050919050565b600081905092915050565b50565b600061282c600083612811565b91506128378261281c565b600082019050919050565b600061284d8261281f565b9150819050919050565b7f4661696c656420746f2073656e642066656520746f206d616e61676572000000600082015250565b600061288d601d8361205f565b915061289882612857565b602082019050919050565b600060208201905081810360008301526128bc81612880565b9050919050565b7f4661696c656420746f2073656e6420616d6f756e7420746f2073656c6c657200600082015250565b60006128f9601f8361205f565b9150612904826128c3565b602082019050919050565b60006020820190508181036000830152612928816128ec565b905091905056fea26469706673582212202c5e7a4066b8f92093c135d3ce40bda7469e7ac3a7efe392bf566176eaa4838364736f6c6343000814003360806040523480156200001157600080fd5b506040516200251f3803806200251f8339818101604052810190620000379190620001fa565b818181600090816200004a9190620004ca565b5080600190816200005c9190620004ca565b5050505050620005b1565b6000604051905090565b600080fd5b600080fd5b600080fd5b600080fd5b6000601f19601f8301169050919050565b7f4e487b7100000000000000000000000000000000000000000000000000000000600052604160045260246000fd5b620000d08262000085565b810181811067ffffffffffffffff82111715620000f257620000f162000096565b5b80604052505050565b60006200010762000067565b9050620001158282620000c5565b919050565b600067ffffffffffffffff82111562000138576200013762000096565b5b620001438262000085565b9050602081019050919050565b60005b838110156200017057808201518184015260208101905062000153565b60008484015250505050565b6000620001936200018d846200011a565b620000fb565b905082815260208101848484011115620001b257620001b162000080565b5b620001bf84828562000150565b509392505050565b600082601f830112620001df57620001de6200007b565b5b8151620001f18482602086016200017c565b91505092915050565b6000806040838503121562000214576200021362000071565b5b600083015167ffffffffffffffff81111562000235576200023462000076565b5b6200024385828601620001c7565b925050602083015167ffffffffffffffff81111562000267576200026662000076565b5b6200027585828601620001c7565b9150509250929050565b600081519050919050565b7f4e487b7100000000000000000000000000000000000000000000000000000000600052602260045260246000fd5b60006002820490506001821680620002d257607f821691505b602082108103620002e857620002e76200028a565b5b50919050565b60008190508160005260206000209050919050565b60006020601f8301049050919050565b600082821b905092915050565b600060088302620003527fffffffffffffffffffffffffffffffffffffffffffffffffffffffffffffffff8262000313565b6200035e868362000313565b95508019841693508086168417925050509392505050565b6000819050919050565b6000819050919050565b6000620003ab620003a56200039f8462000376565b62000380565b62000376565b9050919050565b6000819050919050565b620003c7836200038a565b620003df620003d682620003b2565b84845462000320565b825550505050565b600090565b620003f6620003e7565b62000403818484620003bc565b505050565b5b818110156200042b576200041f600082620003ec565b60018101905062000409565b5050565b601f8211156200047a576200044481620002ee565b6200044f8462000303565b810160208510156200045f578190505b620004776200046e8562000303565b83018262000408565b50505b505050565b600082821c905092915050565b60006200049f600019846008026200047f565b1980831691505092915050565b6000620004ba83836200048c565b9150826002028217905092915050565b620004d5826200027f565b67ffffffffffffffff811115620004f157620004f062000096565b5b620004fd8254620002b9565b6200050a8282856200042f565b600060209050601f8311600181146200054257600084156200052d578287015190505b620005398582620004ac565b865550620005a9565b601f1984166200055286620002ee565b60005b828110156200057c5784890151825560018201915060208501945060208101905062000555565b868310156200059c578489015162000598601f8916826200048c565b8355505b6001600288020188555050505b505050505050565b611f5e80620005c16000396000f3fe608060405234801561001057600080fd5b50600436106100f55760003560e01c80636352211e11610097578063b88d4fde11610066578063b88d4fde14610282578063beabacc81461029e578063c87b56dd146102ba578063e985e9c5146102ea576100f5565b80636352211e146101e857806370a082311461021857806395d89b4114610248578063a22cb46514610266576100f5565b8063095ea7b3116100d3578063095ea7b31461017857806323b872dd1461019457806340c10f19146101b057806342842e0e146101cc576100f5565b806301ffc9a7146100fa57806306fdde031461012a578063081812fc14610148575b600080fd5b610114600480360381019061010f91906117a8565b61031a565b60405161012191906117f0565b60405180910390f35b6101326103fc565b60405161013f919061189b565b60405180910390f35b610162600480360381019061015d91906118f3565b61048e565b60405161016f9190611961565b60405180910390f35b610192600480360381019061018d91906119a8565b6104aa565b005b6101ae60048036038101906101a991906119e8565b6104c0565b005b6101ca60048036038101906101c591906119a8565b6105c2565b005b6101e660048036038101906101e191906119e8565b6105d0565b005b61020260048036038101906101fd91906118f3565b6105f0565b60405161020f9190611961565b60405180910390f35b610232600480360381019061022d9190611a3b565b610602565b60405161023f9190611a77565b60405180910390f35b6102506106bc565b60405161025d919061189b565b60405180910390f35b610280600480360381019061027b9190611abe565b61074e565b005b61029c60048036038101906102979190611c33565b610764565b005b6102b860048036038101906102b391906119e8565b610781565b005b6102d460048036038101906102cf91906118f3565b610791565b6040516102e1919061189b565b60405180910390f35b61030460048036038101906102ff9190611cb6565b6107fa565b60405161031191906117f0565b60405180910390f35b60007f80ac58cd000000000000000000000000000000000000000000000000000000007bffffffffffffffffffffffffffffffffffffffffffffffffffffffff1916827bffffffffffffffffffffffffffffffffffffffffffffffffffffffff191614806103e557507f5b5e139f000000000000000000000000000000000000000000000000000000007bffffffffffffffffffffffffffffffffffffffffffffffffffffffff1916827bffffffffffffffffffffffffffffffffffffffffffffffffffffffff1916145b806103f557506103f48261088e565b5b9050919050565b60606000805461040b90611d25565b80601f016020809104026020016040519081016040528092919081815260200182805461043790611d25565b80156104845780601f1061045957610100808354040283529160200191610484565b820191906000526020600020905b81548152906001019060200180831161046757829003601f168201915b5050505050905090565b6000610499826108f8565b506104a382610980565b9050919050565b6104bc82826104b76109bd565b6109c5565b5050565b600073ffffffffffffffffffffffffffffffffffffffff168273ffffffffffffffffffffffffffffffffffffffff16036105325760006040517f64a0ae920000000000000000000000000000000000000000000000000000000081526004016105299190611961565b60405180910390fd5b600061054683836105416109bd565b6109d7565b90508373ffffffffffffffffffffffffffffffffffffffff168173ffffffffffffffffffffffffffffffffffffffff16146105bc578382826040517f64283d7b0000000000000000000000000000000000000000000000000000000081526004016105b393929190611d56565b60405180910390fd5b50505050565b6105cc8282610bf1565b5050565b6105eb83838360405180602001604052806000815250610764565b505050565b60006105fb826108f8565b9050919050565b60008073ffffffffffffffffffffffffffffffffffffffff168273ffffffffffffffffffffffffffffffffffffffff16036106755760006040517f89c62b6400000000000000000000000000000000000000000000000000000000815260040161066c9190611961565b60405180910390fd5b600360008373ffffffffffffffffffffffffffffffffffffffff1673ffffffffffffffffffffffffffffffffffffffff168152602001908152602001600020549050919050565b6060600180546106cb90611d25565b80601f01602080910402602001604051908101604052809291908181526020018280546106f790611d25565b80156107445780601f1061071957610100808354040283529160200191610744565b820191906000526020600020905b81548152906001019060200180831161072757829003601f168201915b5050505050905090565b6107606107596109bd565b8383610cea565b5050565b61076f8484846104c0565b61077b84848484610e59565b50505050565b61078c838383611010565b505050565b606061079c826108f8565b5060006107a761117d565b905060008151116107c757604051806020016040528060008152506107f2565b806107d184611194565b6040516020016107e2929190611dc9565b6040516020818303038152906040525b915050919050565b6000600560008473ffffffffffffffffffffffffffffffffffffffff1673ffffffffffffffffffffffffffffffffffffffff16815260200190815260200160002060008373ffffffffffffffffffffffffffffffffffffffff1673ffffffffffffffffffffffffffffffffffffffff16815260200190815260200160002060009054906101000a900460ff16905092915050565b60007f01ffc9a7000000000000000000000000000000000000000000000000000000007bffffffffffffffffffffffffffffffffffffffffffffffffffffffff1916827bffffffffffffffffffffffffffffffffffffffffffffffffffffffff1916149050919050565b60008061090483611262565b9050600073ffffffffffffffffffffffffffffffffffffffff168173ffffffffffffffffffffffffffffffffffffffff160361097757826040517f7e27328900000000000000000000000000000000000000000000000000000000815260040161096e9190611a77565b60405180910390fd5b80915050919050565b60006004600083815260200190815260200160002060009054906101000a900473ffffffffffffffffffffffffffffffffffffffff169050919050565b600033905090565b6109d2838383600161129f565b505050565b6000806109e384611262565b9050600073ffffffffffffffffffffffffffffffffffffffff168373ffffffffffffffffffffffffffffffffffffffff1614610a2557610a24818486611464565b5b600073ffffffffffffffffffffffffffffffffffffffff168173ffffffffffffffffffffffffffffffffffffffff1614610ab657610a6760008560008061129f565b6001600360008373ffffffffffffffffffffffffffffffffffffffff1673ffffffffffffffffffffffffffffffffffffffff168152602001908152602001600020600082825403925050819055505b600073ffffffffffffffffffffffffffffffffffffffff168573ffffffffffffffffffffffffffffffffffffffff1614610b39576001600360008773ffffffffffffffffffffffffffffffffffffffff1673ffffffffffffffffffffffffffffffffffffffff168152602001908152602001600020600082825401925050819055505b846002600086815260200190815260200160002060006101000a81548173ffffffffffffffffffffffffffffffffffffffff021916908373ffffffffffffffffffffffffffffffffffffffff160217905550838573ffffffffffffffffffffffffffffffffffffffff168273ffffffffffffffffffffffffffffffffffffffff167fddf252ad1be2c89b69c2b068fc378daa952ba7f163c4a11628f55a4df523b3ef60405160405180910390a4809150509392505050565b600073ffffffffffffffffffffffffffffffffffffffff168273ffffffffffffffffffffffffffffffffffffffff1603610c635760006040517f64a0ae92000000000000000000000000000000000000000000000000000000008152600401610c5a9190611961565b60405180910390fd5b6000610c71838360006109d7565b9050600073ffffffffffffffffffffffffffffffffffffffff168173ffffffffffffffffffffffffffffffffffffffff1614610ce55760006040517f73c6ac6e000000000000000000000000000000000000000000000000000000008152600401610cdc9190611961565b60405180910390fd5b505050565b600073ffffffffffffffffffffffffffffffffffffffff168273ffffffffffffffffffffffffffffffffffffffff1603610d5b57816040517f5b08ba18000000000000000000000000000000000000000000000000000000008152600401610d529190611961565b60405180910390fd5b80600560008573ffffffffffffffffffffffffffffffffffffffff1673ffffffffffffffffffffffffffffffffffffffff16815260200190815260200160002060008473ffffffffffffffffffffffffffffffffffffffff1673ffffffffffffffffffffffffffffffffffffffff16815260200190815260200160002060006101000a81548160ff0219169083151502179055508173ffffffffffffffffffffffffffffffffffffffff168373ffffffffffffffffffffffffffffffffffffffff167f17307eab39ab6107e8899845ad3d59bd9653f200f220920489ca2b5937696c3183604051610e4c91906117f0565b60405180910390a3505050565b60008373ffffffffffffffffffffffffffffffffffffffff163b111561100a578273ffffffffffffffffffffffffffffffffffffffff1663150b7a02610e9d6109bd565b8685856040518563ffffffff1660e01b8152600401610ebf9493929190611e42565b6020604051808303816000875af1925050508015610efb57506040513d601f19601f82011682018060405250810190610ef89190611ea3565b60015b610f7f573d8060008114610f2b576040519150601f19603f3d011682016040523d82523d6000602084013e610f30565b606091505b506000815103610f7757836040517f64a0ae92000000000000000000000000000000000000000000000000000000008152600401610f6e9190611961565b60405180910390fd5b805181602001fd5b63150b7a0260e01b7bffffffffffffffffffffffffffffffffffffffffffffffffffffffff1916817bffffffffffffffffffffffffffffffffffffffffffffffffffffffff19161461100857836040517f64a0ae92000000000000000000000000000000000000000000000000000000008152600401610fff9190611961565b60405180910390fd5b505b50505050565b600073ffffffffffffffffffffffffffffffffffffffff168273ffffffffffffffffffffffffffffffffffffffff16036110825760006040517f64a0ae920000000000000000000000000000000000000000000000000000000081526004016110799190611961565b60405180910390fd5b6000611090838360006109d7565b9050600073ffffffffffffffffffffffffffffffffffffffff168173ffffffffffffffffffffffffffffffffffffffff160361110357816040517f7e2732890000000000000000000000000000000000000000000000000000000081526004016110fa9190611a77565b60405180910390fd5b8373ffffffffffffffffffffffffffffffffffffffff168173ffffffffffffffffffffffffffffffffffffffff1614611177578382826040517f64283d7b00000000000000000000000000000000000000000000000000000000815260040161116e93929190611d56565b60405180910390fd5b50505050565b606060405180602001604052806000815250905090565b6060600060016111a384611528565b01905060008167ffffffffffffffff8111156111c2576111c1611b08565b5b6040519080825280601f01601f1916602001820160405280156111f45781602001600182028036833780820191505090505b509050600082602001820190505b600115611257578080600190039150507f3031323334353637383961626364656600000000000000000000000000000000600a86061a8153600a858161124b5761124a611ed0565b5b04945060008503611202575b819350505050919050565b60006002600083815260200190815260200160002060009054906101000a900473ffffffffffffffffffffffffffffffffffffffff169050919050565b80806112d85750600073ffffffffffffffffffffffffffffffffffffffff168273ffffffffffffffffffffffffffffffffffffffff1614155b1561140c5760006112e8846108f8565b9050600073ffffffffffffffffffffffffffffffffffffffff168373ffffffffffffffffffffffffffffffffffffffff161415801561135357508273ffffffffffffffffffffffffffffffffffffffff168173ffffffffffffffffffffffffffffffffffffffff1614155b8015611366575061136481846107fa565b155b156113a857826040517fa9fbf51f00000000000000000000000000000000000000000000000000000000815260040161139f9190611961565b60405180910390fd5b811561140a57838573ffffffffffffffffffffffffffffffffffffffff168273ffffffffffffffffffffffffffffffffffffffff167f8c5be1e5ebec7d5bd14f71427d1e84f3dd0314c0f7b2291e5b200ac8c7c3b92560405160405180910390a45b505b836004600085815260200190815260200160002060006101000a81548173ffffffffffffffffffffffffffffffffffffffff021916908373ffffffffffffffffffffffffffffffffffffffff16021790555050505050565b61146f83838361167b565b61152357600073ffffffffffffffffffffffffffffffffffffffff168373ffffffffffffffffffffffffffffffffffffffff16036114e457806040517f7e2732890000000000000000000000000000000000000000000000000000000081526004016114db9190611a77565b60405180910390fd5b81816040517f177e802f00000000000000000000000000000000000000000000000000000000815260040161151a929190611eff565b60405180910390fd5b505050565b600080600090507a184f03e93ff9f4daa797ed6e38ed64bf6a1f0100000000000000008310611586577a184f03e93ff9f4daa797ed6e38ed64bf6a1f010000000000000000838161157c5761157b611ed0565b5b0492506040810190505b6d04ee2d6d415b85acef810000000083106115c3576d04ee2d6d415b85acef810000000083816115b9576115b8611ed0565b5b0492506020810190505b662386f26fc1000083106115f257662386f26fc1000083816115e8576115e7611ed0565b5b0492506010810190505b6305f5e100831061161b576305f5e100838161161157611610611ed0565b5b0492506008810190505b612710831061164057612710838161163657611635611ed0565b5b0492506004810190505b60648310611663576064838161165957611658611ed0565b5b0492506002810190505b600a8310611672576001810190505b80915050919050565b60008073ffffffffffffffffffffffffffffffffffffffff168373ffffffffffffffffffffffffffffffffffffffff161415801561173357508273ffffffffffffffffffffffffffffffffffffffff168473ffffffffffffffffffffffffffffffffffffffff1614806116f457506116f384846107fa565b5b8061173257508273ffffffffffffffffffffffffffffffffffffffff1661171a83610980565b73ffffffffffffffffffffffffffffffffffffffff16145b5b90509392505050565b6000604051905090565b600080fd5b600080fd5b60007fffffffff0000000000000000000000000000000000000000000000000000000082169050919050565b61178581611750565b811461179057600080fd5b50565b6000813590506117a28161177c565b92915050565b6000602082840312156117be576117bd611746565b5b60006117cc84828501611793565b91505092915050565b60008115159050919050565b6117ea816117d5565b82525050565b600060208201905061180560008301846117e1565b92915050565b600081519050919050565b600082825260208201905092915050565b60005b8381101561184557808201518184015260208101905061182a565b60008484015250505050565b6000601f19601f8301169050919050565b600061186d8261180b565b6118778185611816565b9350611887818560208601611827565b61189081611851565b840191505092915050565b600060208201905081810360008301526118b58184611862565b905092915050565b6000819050919050565b6118d0816118bd565b81146118db57600080fd5b50565b6000813590506118ed816118c7565b92915050565b60006020828403121561190957611908611746565b5b6000611917848285016118de565b91505092915050565b600073ffffffffffffffffffffffffffffffffffffffff82169050919050565b600061194b82611920565b9050919050565b61195b81611940565b82525050565b60006020820190506119766000830184611952565b92915050565b61198581611940565b811461199057600080fd5b50565b6000813590506119a28161197c565b92915050565b600080604083850312156119bf576119be611746565b5b60006119cd85828601611993565b92505060206119de858286016118de565b9150509250929050565b600080600060608486031215611a0157611a00611746565b5b6000611a0f86828701611993565b9350506020611a2086828701611993565b9250506040611a31868287016118de565b9150509250925092565b600060208284031215611a5157611a50611746565b5b6000611a5f84828501611993565b91505092915050565b611a71816118bd565b82525050565b6000602082019050611a8c6000830184611a68565b92915050565b611a9b816117d5565b8114611aa657600080fd5b50565b600081359050611ab881611a92565b92915050565b60008060408385031215611ad557611ad4611746565b5b6000611ae385828601611993565b9250506020611af485828601611aa9565b9150509250929050565b600080fd5b600080fd5b7f4e487b7100000000000000000000000000000000000000000000000000000000600052604160045260246000fd5b611b4082611851565b810181811067ffffffffffffffff82111715611b5f57611b5e611b08565b5b80604052505050565b6000611b7261173c565b9050611b7e8282611b37565b919050565b600067ffffffffffffffff821115611b9e57611b9d611b08565b5b611ba782611851565b9050602081019050919050565b82818337600083830152505050565b6000611bd6611bd184611b83565b611b68565b905082815260208101848484011115611bf257611bf1611b03565b5b611bfd848285611bb4565b509392505050565b600082601f830112611c1a57611c19611afe565b5b8135611c2a848260208601611bc3565b91505092915050565b60008060008060808587031215611c4d57611c4c611746565b5b6000611c5b87828801611993565b9450506020611c6c87828801611993565b9350506040611c7d878288016118de565b925050606085013567ffffffffffffffff811115611c9e57611c9d61174b565b5b611caa87828801611c05565b91505092959194509250565b60008060408385031215611ccd57611ccc611746565b5b6000611cdb85828601611993565b9250506020611cec85828601611993565b9150509250929050565b7f4e487b7100000000000000000000000000000000000000000000000000000000600052602260045260246000fd5b60006002820490506001821680611d3d57607f821691505b602082108103611d5057611d4f611cf6565b5b50919050565b6000606082019050611d6b6000830186611952565b611d786020830185611a68565b611d856040830184611952565b949350505050565b600081905092915050565b6000611da38261180b565b611dad8185611d8d565b9350611dbd818560208601611827565b80840191505092915050565b6000611dd58285611d98565b9150611de18284611d98565b91508190509392505050565b600081519050919050565b600082825260208201905092915050565b6000611e1482611ded565b611e1e8185611df8565b9350611e2e818560208601611827565b611e3781611851565b840191505092915050565b6000608082019050611e576000830187611952565b611e646020830186611952565b611e716040830185611a68565b8181036060830152611e838184611e09565b905095945050505050565b600081519050611e9d8161177c565b92915050565b600060208284031215611eb957611eb8611746565b5b6000611ec784828501611e8e565b91505092915050565b7f4e487b7100000000000000000000000000000000000000000000000000000000600052601260045260246000fd5b6000604082019050611f146000830185611952565b611f216020830184611a68565b939250505056fea26469706673582212207ea0a6a31a21c65e5caaedec551ed3cf989acaabf3ffc36ca8f3574e4306820a64736f6c6343000814003360806040523480156200001157600080fd5b50604051620014cd380380620014cd8339818101604052810190620000379190620001fa565b818181600390816200004a9190620004ca565b5080600490816200005c9190620004ca565b5050505050620005b1565b6000604051905090565b600080fd5b600080fd5b600080fd5b600080fd5b6000601f19601f8301169050919050565b7f4e487b7100000000000000000000000000000000000000000000000000000000600052604160045260246000fd5b620000d08262000085565b810181811067ffffffffffffffff82111715620000f257620000f162000096565b5b80604052505050565b60006200010762000067565b9050620001158282620000c5565b919050565b600067ffffffffffffffff82111562000138576200013762000096565b5b620001438262000085565b9050602081019050919050565b60005b838110156200017057808201518184015260208101905062000153565b60008484015250505050565b6000620001936200018d846200011a565b620000fb565b905082815260208101848484011115620001b257620001b162000080565b5b620001bf84828562000150565b509392505050565b600082601f830112620001df57620001de6200007b565b5b8151620001f18482602086016200017c565b91505092915050565b6000806040838503121562000214576200021362000071565b5b600083015167ffffffffffffffff81111562000235576200023462000076565b5b6200024385828601620001c7565b925050602083015167ffffffffffffffff81111562000267576200026662000076565b5b6200027585828601620001c7565b9150509250929050565b600081519050919050565b7f4e487b7100000000000000000000000000000000000000000000000000000000600052602260045260246000fd5b60006002820490506001821680620002d257607f821691505b602082108103620002e857620002e76200028a565b5b50919050565b60008190508160005260206000209050919050565b60006020601f8301049050919050565b600082821b905092915050565b600060088302620003527fffffffffffffffffffffffffffffffffffffffffffffffffffffffffffffffff8262000313565b6200035e868362000313565b95508019841693508086168417925050509392505050565b6000819050919050565b6000819050919050565b6000620003ab620003a56200039f8462000376565b62000380565b62000376565b9050919050565b6000819050919050565b620003c7836200038a565b620003df620003d682620003b2565b84845462000320565b825550505050565b600090565b620003f6620003e7565b62000403818484620003bc565b505050565b5b818110156200042b576200041f600082620003ec565b60018101905062000409565b5050565b601f8211156200047a576200044481620002ee565b6200044f8462000303565b810160208510156200045f578190505b620004776200046e8562000303565b83018262000408565b50505b505050565b600082821c905092915050565b60006200049f600019846008026200047f565b1980831691505092915050565b6000620004ba83836200048c565b9150826002028217905092915050565b620004d5826200027f565b67ffffffffffffffff811115620004f157620004f062000096565b5b620004fd8254620002b9565b6200050a8282856200042f565b600060209050601f8311600181146200054257600084156200052d578287015190505b620005398582620004ac565b865550620005a9565b601f1984166200055286620002ee565b60005b828110156200057c5784890151825560018201915060208501945060208101905062000555565b868310156200059c578489015162000598601f8916826200048c565b8355505b6001600288020188555050505b505050505050565b610f0c80620005c16000396000f3fe608060405234801561001057600080fd5b506004361061009e5760003560e01c806340c10f191161006657806340c10f191461015d57806370a082311461017957806395d89b41146101a9578063a9059cbb146101c7578063dd62ed3e146101f75761009e565b806306fdde03146100a3578063095ea7b3146100c157806318160ddd146100f157806323b872dd1461010f578063313ce5671461013f575b600080fd5b6100ab610227565b6040516100b89190610b60565b60405180910390f35b6100db60048036038101906100d69190610c1b565b6102b9565b6040516100e89190610c76565b60405180910390f35b6100f96102dc565b6040516101069190610ca0565b60405180910390f35b61012960048036038101906101249190610cbb565b6102e6565b6040516101369190610c76565b60405180910390f35b610147610315565b6040516101549190610d2a565b60405180910390f35b61017760048036038101906101729190610c1b565b61031e565b005b610193600480360381019061018e9190610d45565b61032c565b6040516101a09190610ca0565b60405180910390f35b6101b1610374565b6040516101be9190610b60565b60405180910390f35b6101e160048036038101906101dc9190610c1b565b610406565b6040516101ee9190610c76565b60405180910390f35b610211600480360381019061020c9190610d72565b610429565b60405161021e9190610ca0565b60405180910390f35b60606003805461023690610de1565b80601f016020809104026020016040519081016040528092919081815260200182805461026290610de1565b80156102af5780601f10610284576101008083540402835291602001916102af565b820191906000526020600020905b81548152906001019060200180831161029257829003601f168201915b5050505050905090565b6000806102c46104b0565b90506102d18185856104b8565b600191505092915050565b6000600254905090565b6000806102f16104b0565b90506102fe8582856104ca565b61030985858561055e565b60019150509392505050565b60006012905090565b6103288282610652565b5050565b60008060008373ffffffffffffffffffffffffffffffffffffffff1673ffffffffffffffffffffffffffffffffffffffff168152602001908152602001600020549050919050565b60606004805461038390610de1565b80601f01602080910402602001604051908101604052809291908181526020018280546103af90610de1565b80156103fc5780601f106103d1576101008083540402835291602001916103fc565b820191906000526020600020905b8154815290600101906020018083116103df57829003601f168201915b5050505050905090565b6000806104116104b0565b905061041e81858561055e565b600191505092915050565b6000600160008473ffffffffffffffffffffffffffffffffffffffff1673ffffffffffffffffffffffffffffffffffffffff16815260200190815260200160002060008373ffffffffffffffffffffffffffffffffffffffff1673ffffffffffffffffffffffffffffffffffffffff16815260200190815260200160002054905092915050565b600033905090565b6104c583838360016106d4565b505050565b60006104d68484610429565b90507fffffffffffffffffffffffffffffffffffffffffffffffffffffffffffffffff81146105585781811015610548578281836040517ffb8f41b200000000000000000000000000000000000000000000000000000000815260040161053f93929190610e21565b60405180910390fd5b610557848484840360006106d4565b5b50505050565b600073ffffffffffffffffffffffffffffffffffffffff168373ffffffffffffffffffffffffffffffffffffffff16036105d05760006040517f96c6fd1e0000000000000000000000000000000000000000000000000000000081526004016105c79190610e58565b60405180910390fd5b600073ffffffffffffffffffffffffffffffffffffffff168273ffffffffffffffffffffffffffffffffffffffff16036106425760006040517fec442f050000000000000000000000000000000000000000000000000000000081526004016106399190610e58565b60405180910390fd5b61064d8383836108ab565b505050565b600073ffffffffffffffffffffffffffffffffffffffff168273ffffffffffffffffffffffffffffffffffffffff16036106c45760006040517fec442f050000000000000000000000000000000000000000000000000000000081526004016106bb9190610e58565b60405180910390fd5b6106d0600083836108ab565b5050565b600073ffffffffffffffffffffffffffffffffffffffff168473ffffffffffffffffffffffffffffffffffffffff16036107465760006040517fe602df0500000000000000000000000000000000000000000000000000000000815260040161073d9190610e58565b60405180910390fd5b600073ffffffffffffffffffffffffffffffffffffffff168373ffffffffffffffffffffffffffffffffffffffff16036107b85760006040517f94280d620000000000000000000000000000000000000000000000000000000081526004016107af9190610e58565b60405180910390fd5b81600160008673ffffffffffffffffffffffffffffffffffffffff1673ffffffffffffffffffffffffffffffffffffffff16815260200190815260200160002060008573ffffffffffffffffffffffffffffffffffffffff1673ffffffffffffffffffffffffffffffffffffffff1681526020019081526020016000208190555080156108a5578273ffffffffffffffffffffffffffffffffffffffff168473ffffffffffffffffffffffffffffffffffffffff167f8c5be1e5ebec7d5bd14f71427d1e84f3dd0314c0f7b2291e5b200ac8c7c3b9258460405161089c9190610ca0565b60405180910390a35b50505050565b600073ffffffffffffffffffffffffffffffffffffffff168373ffffffffffffffffffffffffffffffffffffffff16036108fd5780600260008282546108f19190610ea2565b925050819055506109d0565b60008060008573ffffffffffffffffffffffffffffffffffffffff1673ffffffffffffffffffffffffffffffffffffffff16815260200190815260200160002054905081811015610989578381836040517fe450d38c00000000000000000000000000000000000000000000000000000000815260040161098093929190610e21565b60405180910390fd5b8181036000808673ffffffffffffffffffffffffffffffffffffffff1673ffffffffffffffffffffffffffffffffffffffff16815260200190815260200160002081905550505b600073ffffffffffffffffffffffffffffffffffffffff168273ffffffffffffffffffffffffffffffffffffffff1603610a195780600260008282540392505081905550610a66565b806000808473ffffffffffffffffffffffffffffffffffffffff1673ffffffffffffffffffffffffffffffffffffffff168152602001908152602001600020600082825401925050819055505b8173ffffffffffffffffffffffffffffffffffffffff168373ffffffffffffffffffffffffffffffffffffffff167fddf252ad1be2c89b69c2b068fc378daa952ba7f163c4a11628f55a4df523b3ef83604051610ac39190610ca0565b60405180910390a3505050565b600081519050919050565b600082825260208201905092915050565b60005b83811015610b0a578082015181840152602081019050610aef565b60008484015250505050565b6000601f19601f8301169050919050565b6000610b3282610ad0565b610b3c8185610adb565b9350610b4c818560208601610aec565b610b5581610b16565b840191505092915050565b60006020820190508181036000830152610b7a8184610b27565b905092915050565b600080fd5b600073ffffffffffffffffffffffffffffffffffffffff82169050919050565b6000610bb282610b87565b9050919050565b610bc281610ba7565b8114610bcd57600080fd5b50565b600081359050610bdf81610bb9565b92915050565b6000819050919050565b610bf881610be5565b8114610c0357600080fd5b50565b600081359050610c1581610bef565b92915050565b60008060408385031215610c3257610c31610b82565b5b6000610c4085828601610bd0565b9250506020610c5185828601610c06565b9150509250929050565b60008115159050919050565b610c7081610c5b565b82525050565b6000602082019050610c8b6000830184610c67565b92915050565b610c9a81610be5565b82525050565b6000602082019050610cb56000830184610c91565b92915050565b600080600060608486031215610cd457610cd3610b82565b5b6000610ce286828701610bd0565b9350506020610cf386828701610bd0565b9250506040610d0486828701610c06565b9150509250925092565b600060ff82169050919050565b610d2481610d0e565b82525050565b6000602082019050610d3f6000830184610d1b565b92915050565b600060208284031215610d5b57610d5a610b82565b5b6000610d6984828501610bd0565b91505092915050565b60008060408385031215610d8957610d88610b82565b5b6000610d9785828601610bd0565b9250506020610da885828601610bd0565b9150509250929050565b7f4e487b7100000000000000000000000000000000000000000000000000000000600052602260045260246000fd5b60006002820490506001821680610df957607f821691505b602082108103610e0c57610e0b610db2565b5b50919050565b610e1b81610ba7565b82525050565b6000606082019050610e366000830186610e12565b610e436020830185610c91565b610e506040830184610c91565b949350505050565b6000602082019050610e6d6000830184610e12565b92915050565b7f4e487b7100000000000000000000000000000000000000000000000000000000600052601160045260246000fd5b6000610ead82610be5565b9150610eb883610be5565b9250828201905080821115610ed057610ecf610e73565b5b9291505056fea26469706673582212202270900050d9f1cedad7f7e02fc45fe0b2b014b9eddc2cc260354c9a4f50743a64736f6c63430008140033",
  "linkReferences": {},
  "deployedLinkReferences": {}
}