{
  "_format": "hh-sol-artifact-1",
  "contractName": "BuyMyRoom",
  "sourceName": "contracts/BuyMyRoom.sol",
  "abi": [
    {
      "inputs": [
        {
          "internalType": "string",
          "name": "name",
          "type": "string"
        },
        {
          "internalType": "string",
          "name": "symbol",
          "type": "string"
        }
      ],
      "stateMutability": "nonpayable",
      "type": "constructor"
    },
    {
      "inputs": [
        {
          "internalType": "address",
          "name": "sender",
          "type": "address"
        },
        {
          "internalType": "uint256",
          "name": "tokenId",
          "type": "uint256"
        },
        {
          "internalType": "address",
          "name": "owner",
          "type": "address"
        }
      ],
      "name": "ERC721IncorrectOwner",
      "type": "error"
    },
    {
      "inputs": [
        {
          "internalType": "address",
          "name": "operator",
          "type": "address"
        },
        {
          "internalType": "uint256",
          "name": "tokenId",
          "type": "uint256"
        }
      ],
      "name": "ERC721InsufficientApproval",
      "type": "error"
    },
    {
      "inputs": [
        {
          "internalType": "address",
          "name": "approver",
          "type": "address"
        }
      ],
      "name": "ERC721InvalidApprover",
      "type": "error"
    },
    {
      "inputs": [
        {
          "internalType": "address",
          "name": "operator",
          "type": "address"
        }
      ],
      "name": "ERC721InvalidOperator",
      "type": "error"
    },
    {
      "inputs": [
        {
          "internalType": "address",
          "name": "owner",
          "type": "address"
        }
      ],
      "name": "ERC721InvalidOwner",
      "type": "error"
    },
    {
      "inputs": [
        {
          "internalType": "address",
          "name": "receiver",
          "type": "address"
        }
      ],
      "name": "ERC721InvalidReceiver",
      "type": "error"
    },
    {
      "inputs": [
        {
          "internalType": "address",
          "name": "sender",
          "type": "address"
        }
      ],
      "name": "ERC721InvalidSender",
      "type": "error"
    },
    {
      "inputs": [
        {
          "internalType": "uint256",
          "name": "tokenId",
          "type": "uint256"
        }
      ],
      "name": "ERC721NonexistentToken",
      "type": "error"
    },
    {
      "anonymous": false,
      "inputs": [
        {
          "indexed": true,
          "internalType": "address",
          "name": "owner",
          "type": "address"
        },
        {
          "indexed": true,
          "internalType": "address",
          "name": "approved",
          "type": "address"
        },
        {
          "indexed": true,
          "internalType": "uint256",
          "name": "tokenId",
          "type": "uint256"
        }
      ],
      "name": "Approval",
      "type": "event"
    },
    {
      "anonymous": false,
      "inputs": [
        {
          "indexed": true,
          "internalType": "address",
          "name": "owner",
          "type": "address"
        },
        {
          "indexed": true,
          "internalType": "address",
          "name": "operator",
          "type": "address"
        },
        {
          "indexed": false,
          "internalType": "bool",
          "name": "approved",
          "type": "bool"
        }
      ],
      "name": "ApprovalForAll",
      "type": "event"
    },
    {
      "anonymous": false,
      "inputs": [
        {
          "indexed": false,
          "internalType": "uint256",
          "name": "tokenId",
          "type": "uint256"
        },
        {
          "indexed": false,
          "internalType": "uint256",
          "name": "price",
          "type": "uint256"
        },
        {
          "indexed": false,
          "internalType": "address",
          "name": "owner",
          "type": "address"
        }
      ],
      "name": "HouseListed",
      "type": "event"
    },
    {
      "anonymous": false,
      "inputs": [
        {
          "indexed": true,
          "internalType": "address",
          "name": "from",
          "type": "address"
        },
        {
          "indexed": true,
          "internalType": "address",
          "name": "to",
          "type": "address"
        },
        {
          "indexed": true,
          "internalType": "uint256",
          "name": "tokenId",
          "type": "uint256"
        }
      ],
      "name": "Transfer",
      "type": "event"
    },
    {
      "inputs": [
        {
          "internalType": "address",
          "name": "",
          "type": "address"
        }
      ],
      "name": "AirDropped",
      "outputs": [
        {
          "internalType": "bool",
          "name": "",
          "type": "bool"
        }
      ],
      "stateMutability": "view",
      "type": "function"
    },
    {
      "inputs": [],
      "name": "airdrop",
      "outputs": [],
      "stateMutability": "nonpayable",
      "type": "function"
    },
    {
      "inputs": [
        {
          "internalType": "address",
          "name": "to",
          "type": "address"
        },
        {
          "internalType": "uint256",
          "name": "tokenId",
          "type": "uint256"
        }
      ],
      "name": "approve",
      "outputs": [],
      "stateMutability": "nonpayable",
      "type": "function"
    },
    {
      "inputs": [
        {
          "internalType": "address",
          "name": "owner",
          "type": "address"
        }
      ],
      "name": "balanceOf",
      "outputs": [
        {
          "internalType": "uint256",
          "name": "",
          "type": "uint256"
        }
      ],
      "stateMutability": "view",
      "type": "function"
    },
    {
      "inputs": [
        {
          "internalType": "uint256",
          "name": "houseId",
          "type": "uint256"
        }
      ],
      "name": "buyHouse",
      "outputs": [
        {
          "internalType": "bool",
          "name": "",
          "type": "bool"
        }
      ],
      "stateMutability": "nonpayable",
      "type": "function"
    },
    {
      "inputs": [
        {
          "internalType": "uint256",
          "name": "tokenId",
          "type": "uint256"
        }
      ],
      "name": "getApproved",
      "outputs": [
        {
          "internalType": "address",
          "name": "",
          "type": "address"
        }
      ],
      "stateMutability": "view",
      "type": "function"
    },
    {
      "inputs": [
        {
          "internalType": "uint256",
          "name": "houseId",
          "type": "uint256"
        }
      ],
      "name": "getHouseInfo",
      "outputs": [
        {
          "components": [
            {
              "internalType": "address",
              "name": "owner",
              "type": "address"
            },
            {
              "internalType": "uint256",
              "name": "listedTimestamp",
              "type": "uint256"
            },
            {
              "internalType": "uint256",
              "name": "price",
              "type": "uint256"
            },
            {
              "internalType": "bool",
              "name": "onSale",
              "type": "bool"
            },
            {
              "internalType": "uint256",
              "name": "onSaleTimestamp",
              "type": "uint256"
            }
          ],
          "internalType": "struct BuyMyRoom.House",
          "name": "",
          "type": "tuple"
        }
      ],
      "stateMutability": "view",
      "type": "function"
    },
    {
      "inputs": [],
      "name": "getMyHouses",
      "outputs": [
        {
          "components": [
            {
              "internalType": "address",
              "name": "owner",
              "type": "address"
            },
            {
              "internalType": "uint256",
              "name": "listedTimestamp",
              "type": "uint256"
            },
            {
              "internalType": "uint256",
              "name": "price",
              "type": "uint256"
            },
            {
              "internalType": "bool",
              "name": "onSale",
              "type": "bool"
            },
            {
              "internalType": "uint256",
              "name": "onSaleTimestamp",
              "type": "uint256"
            }
          ],
          "internalType": "struct BuyMyRoom.House[]",
          "name": "",
          "type": "tuple[]"
        }
      ],
      "stateMutability": "view",
      "type": "function"
    },
    {
      "inputs": [],
      "name": "getSellingHouses",
      "outputs": [
        {
          "components": [
            {
              "internalType": "address",
              "name": "owner",
              "type": "address"
            },
            {
              "internalType": "uint256",
              "name": "listedTimestamp",
              "type": "uint256"
            },
            {
              "internalType": "uint256",
              "name": "price",
              "type": "uint256"
            },
            {
              "internalType": "bool",
              "name": "onSale",
              "type": "bool"
            },
            {
              "internalType": "uint256",
              "name": "onSaleTimestamp",
              "type": "uint256"
            }
          ],
          "internalType": "struct BuyMyRoom.House[]",
          "name": "",
          "type": "tuple[]"
        }
      ],
      "stateMutability": "view",
      "type": "function"
    },
    {
      "inputs": [
        {
          "internalType": "uint256",
          "name": "",
          "type": "uint256"
        }
      ],
      "name": "houses",
      "outputs": [
        {
          "internalType": "address",
          "name": "owner",
          "type": "address"
        },
        {
          "internalType": "uint256",
          "name": "listedTimestamp",
          "type": "uint256"
        },
        {
          "internalType": "uint256",
          "name": "price",
          "type": "uint256"
        },
        {
          "internalType": "bool",
          "name": "onSale",
          "type": "bool"
        },
        {
          "internalType": "uint256",
          "name": "onSaleTimestamp",
          "type": "uint256"
        }
      ],
      "stateMutability": "view",
      "type": "function"
    },
    {
      "inputs": [
        {
          "internalType": "address",
          "name": "owner",
          "type": "address"
        },
        {
          "internalType": "address",
          "name": "operator",
          "type": "address"
        }
      ],
      "name": "isApprovedForAll",
      "outputs": [
        {
          "internalType": "bool",
          "name": "",
          "type": "bool"
        }
      ],
      "stateMutability": "view",
      "type": "function"
    },
    {
      "inputs": [],
      "name": "name",
      "outputs": [
        {
          "internalType": "string",
          "name": "",
          "type": "string"
        }
      ],
      "stateMutability": "view",
      "type": "function"
    },
    {
      "inputs": [
        {
          "internalType": "uint256",
          "name": "tokenId",
          "type": "uint256"
        }
      ],
      "name": "ownerOf",
      "outputs": [
        {
          "internalType": "address",
          "name": "",
          "type": "address"
        }
      ],
      "stateMutability": "view",
      "type": "function"
    },
    {
      "inputs": [
        {
          "internalType": "address",
          "name": "from",
          "type": "address"
        },
        {
          "internalType": "address",
          "name": "to",
          "type": "address"
        },
        {
          "internalType": "uint256",
          "name": "tokenId",
          "type": "uint256"
        }
      ],
      "name": "safeTransferFrom",
      "outputs": [],
      "stateMutability": "nonpayable",
      "type": "function"
    },
    {
      "inputs": [
        {
          "internalType": "address",
          "name": "from",
          "type": "address"
        },
        {
          "internalType": "address",
          "name": "to",
          "type": "address"
        },
        {
          "internalType": "uint256",
          "name": "tokenId",
          "type": "uint256"
        },
        {
          "internalType": "bytes",
          "name": "data",
          "type": "bytes"
        }
      ],
      "name": "safeTransferFrom",
      "outputs": [],
      "stateMutability": "nonpayable",
      "type": "function"
    },
    {
      "inputs": [
        {
          "internalType": "uint256",
          "name": "houseId",
          "type": "uint256"
        },
        {
          "internalType": "uint256",
          "name": "price",
          "type": "uint256"
        }
      ],
      "name": "saleHouse",
      "outputs": [
        {
          "internalType": "bool",
          "name": "",
          "type": "bool"
        }
      ],
      "stateMutability": "nonpayable",
      "type": "function"
    },
    {
      "inputs": [
        {
          "internalType": "address",
          "name": "operator",
          "type": "address"
        },
        {
          "internalType": "bool",
          "name": "approved",
          "type": "bool"
        }
      ],
      "name": "setApprovalForAll",
      "outputs": [],
      "stateMutability": "nonpayable",
      "type": "function"
    },
    {
      "inputs": [
        {
          "internalType": "bytes4",
          "name": "interfaceId",
          "type": "bytes4"
        }
      ],
      "name": "supportsInterface",
      "outputs": [
        {
          "internalType": "bool",
          "name": "",
          "type": "bool"
        }
      ],
      "stateMutability": "view",
      "type": "function"
    },
    {
      "inputs": [],
      "name": "symbol",
      "outputs": [
        {
          "internalType": "string",
          "name": "",
          "type": "string"
        }
      ],
      "stateMutability": "view",
      "type": "function"
    },
    {
      "inputs": [
        {
          "internalType": "uint256",
          "name": "tokenId",
          "type": "uint256"
        }
      ],
      "name": "tokenURI",
      "outputs": [
        {
          "internalType": "string",
          "name": "",
          "type": "string"
        }
      ],
      "stateMutability": "view",
      "type": "function"
    },
    {
      "inputs": [
        {
          "internalType": "address",
          "name": "from",
          "type": "address"
        },
        {
          "internalType": "address",
          "name": "to",
          "type": "address"
        },
        {
          "internalType": "uint256",
          "name": "tokenId",
          "type": "uint256"
        }
      ],
      "name": "transferFrom",
      "outputs": [],
      "stateMutability": "nonpayable",
      "type": "function"
    },
    {
      "inputs": [
        {
          "internalType": "uint256",
          "name": "",
          "type": "uint256"
        }
      ],
      "name": "users",
      "outputs": [
        {
          "internalType": "address",
          "name": "",
          "type": "address"
        }
      ],
      "stateMutability": "view",
      "type": "function"
    }
  ],
  "bytecode": "0x608060405260006009553480156200001657600080fd5b5060405162003a5238038062003a5283398181016040528101906200003c919062000240565b818181600090816200004f919062000510565b50806001908162000061919062000510565b50505033600860006101000a81548173ffffffffffffffffffffffffffffffffffffffff021916908373ffffffffffffffffffffffffffffffffffffffff1602179055505050620005f7565b6000604051905090565b600080fd5b600080fd5b600080fd5b600080fd5b6000601f19601f8301169050919050565b7f4e487b7100000000000000000000000000000000000000000000000000000000600052604160045260246000fd5b6200011682620000cb565b810181811067ffffffffffffffff82111715620001385762000137620000dc565b5b80604052505050565b60006200014d620000ad565b90506200015b82826200010b565b919050565b600067ffffffffffffffff8211156200017e576200017d620000dc565b5b6200018982620000cb565b9050602081019050919050565b60005b83811015620001b657808201518184015260208101905062000199565b60008484015250505050565b6000620001d9620001d38462000160565b62000141565b905082815260208101848484011115620001f857620001f7620000c6565b5b6200020584828562000196565b509392505050565b600082601f830112620002255762000224620000c1565b5b815162000237848260208601620001c2565b91505092915050565b600080604083850312156200025a5762000259620000b7565b5b600083015167ffffffffffffffff8111156200027b576200027a620000bc565b5b62000289858286016200020d565b925050602083015167ffffffffffffffff811115620002ad57620002ac620000bc565b5b620002bb858286016200020d565b9150509250929050565b600081519050919050565b7f4e487b7100000000000000000000000000000000000000000000000000000000600052602260045260246000fd5b600060028204905060018216806200031857607f821691505b6020821081036200032e576200032d620002d0565b5b50919050565b60008190508160005260206000209050919050565b60006020601f8301049050919050565b600082821b905092915050565b600060088302620003987fffffffffffffffffffffffffffffffffffffffffffffffffffffffffffffffff8262000359565b620003a4868362000359565b95508019841693508086168417925050509392505050565b6000819050919050565b6000819050919050565b6000620003f1620003eb620003e584620003bc565b620003c6565b620003bc565b9050919050565b6000819050919050565b6200040d83620003d0565b620004256200041c82620003f8565b84845462000366565b825550505050565b600090565b6200043c6200042d565b6200044981848462000402565b505050565b5b8181101562000471576200046560008262000432565b6001810190506200044f565b5050565b601f821115620004c0576200048a8162000334565b620004958462000349565b81016020851015620004a5578190505b620004bd620004b48562000349565b8301826200044e565b50505b505050565b600082821c905092915050565b6000620004e560001984600802620004c5565b1980831691505092915050565b6000620005008383620004d2565b9150826002028217905092915050565b6200051b82620002c5565b67ffffffffffffffff811115620005375762000536620000dc565b5b620005438254620002ff565b6200055082828562000475565b600060209050601f83116001811462000588576000841562000573578287015190505b6200057f8582620004f2565b865550620005ef565b601f198416620005988662000334565b60005b82811015620005c2578489015182556001820191506020850194506020810190506200059b565b86831015620005e25784890151620005de601f891682620004d2565b8355505b6001600288020188555050505b505050505050565b61344b80620006076000396000f3fe608060405234801561001057600080fd5b50600436106101425760003560e01c806370a08231116100b8578063b14f1afd1161007c578063b14f1afd1461039f578063b88d4fde146103bd578063c87b56dd146103d9578063ca6628d314610409578063e985e9c514610439578063eddc42691461046957610142565b806370a08231146102d157806395d89b4114610301578063a22cb4651461031f578063ad50f56d1461033b578063aeda852f1461036b57610142565b8063365b98b21161010a578063365b98b2146101fd5780633884d6351461022d57806342842e0e146102375780636352211e1461025357806363f78c9b146102835780637042b0bc146102b357610142565b806301ffc9a71461014757806306fdde0314610177578063081812fc14610195578063095ea7b3146101c557806323b872dd146101e1575b600080fd5b610161600480360381019061015c919061263a565b610499565b60405161016e9190612682565b60405180910390f35b61017f61057b565b60405161018c919061272d565b60405180910390f35b6101af60048036038101906101aa9190612785565b61060d565b6040516101bc91906127f3565b60405180910390f35b6101df60048036038101906101da919061283a565b610629565b005b6101fb60048036038101906101f6919061287a565b61063f565b005b61021760048036038101906102129190612785565b610741565b60405161022491906127f3565b60405180910390f35b610235610780565b005b610251600480360381019061024c919061287a565b610993565b005b61026d60048036038101906102689190612785565b6109b3565b60405161027a91906127f3565b60405180910390f35b61029d600480360381019061029891906128cd565b6109c5565b6040516102aa9190612682565b60405180910390f35b6102bb610b44565b6040516102c89190612a51565b60405180910390f35b6102eb60048036038101906102e69190612a73565b610d28565b6040516102f89190612aaf565b60405180910390f35b610309610de2565b604051610316919061272d565b60405180910390f35b61033960048036038101906103349190612af6565b610e74565b005b61035560048036038101906103509190612785565b610e8a565b6040516103629190612b9e565b60405180910390f35b61038560048036038101906103809190612785565b610f46565b604051610396959493929190612bb9565b60405180910390f35b6103a7610fa9565b6040516103b49190612a51565b60405180910390f35b6103d760048036038101906103d29190612d41565b61120d565b005b6103f360048036038101906103ee9190612785565b61122a565b604051610400919061272d565b60405180910390f35b610423600480360381019061041e9190612a73565b611293565b6040516104309190612682565b60405180910390f35b610453600480360381019061044e9190612dc4565b6112b3565b6040516104609190612682565b60405180910390f35b610483600480360381019061047e9190612785565b611347565b6040516104909190612682565b60405180910390f35b60007f80ac58cd000000000000000000000000000000000000000000000000000000007bffffffffffffffffffffffffffffffffffffffffffffffffffffffff1916827bffffffffffffffffffffffffffffffffffffffffffffffffffffffff1916148061056457507f5b5e139f000000000000000000000000000000000000000000000000000000007bffffffffffffffffffffffffffffffffffffffffffffffffffffffff1916827bffffffffffffffffffffffffffffffffffffffffffffffffffffffff1916145b806105745750610573826116d9565b5b9050919050565b60606000805461058a90612e33565b80601f01602080910402602001604051908101604052809291908181526020018280546105b690612e33565b80156106035780601f106105d857610100808354040283529160200191610603565b820191906000526020600020905b8154815290600101906020018083116105e657829003601f168201915b5050505050905090565b600061061882611743565b50610622826117cb565b9050919050565b61063b8282610636611808565b611810565b5050565b600073ffffffffffffffffffffffffffffffffffffffff168273ffffffffffffffffffffffffffffffffffffffff16036106b15760006040517f64a0ae920000000000000000000000000000000000000000000000000000000081526004016106a891906127f3565b60405180910390fd5b60006106c583836106c0611808565b611822565b90508373ffffffffffffffffffffffffffffffffffffffff168173ffffffffffffffffffffffffffffffffffffffff161461073b578382826040517f64283d7b00000000000000000000000000000000000000000000000000000000815260040161073293929190612e64565b60405180910390fd5b50505050565b6007818154811061075157600080fd5b906000526020600020016000915054906101000a900473ffffffffffffffffffffffffffffffffffffffff1681565b60001515600a60003373ffffffffffffffffffffffffffffffffffffffff1673ffffffffffffffffffffffffffffffffffffffff16815260200190815260200160002060009054906101000a900460ff16151514610813576040517f08c379a000000000000000000000000000000000000000000000000000000000815260040161080a90612f0d565b60405180910390fd5b6000805b60038110156109375760095491506009600081548092919061083890612f5c565b91905055506108473383611a3c565b6040518060a001604052803373ffffffffffffffffffffffffffffffffffffffff1681526020014281526020016000815260200160001515815260200160008152506006600084815260200190815260200160002060008201518160000160006101000a81548173ffffffffffffffffffffffffffffffffffffffff021916908373ffffffffffffffffffffffffffffffffffffffff160217905550602082015181600101556040820151816002015560608201518160030160006101000a81548160ff02191690831515021790555060808201518160040155905050808061092f90612f5c565b915050610817565b506001600a60003373ffffffffffffffffffffffffffffffffffffffff1673ffffffffffffffffffffffffffffffffffffffff16815260200190815260200160002060006101000a81548160ff02191690831515021790555050565b6109ae8383836040518060200160405280600081525061120d565b505050565b60006109be82611743565b9050919050565b60003373ffffffffffffffffffffffffffffffffffffffff166006600085815260200190815260200160002060000160009054906101000a900473ffffffffffffffffffffffffffffffffffffffff1673ffffffffffffffffffffffffffffffffffffffff1614610a6b576040517f08c379a0000000000000000000000000000000000000000000000000000000008152600401610a6290613016565b60405180910390fd5b600015156006600085815260200190815260200160002060030160009054906101000a900460ff16151514610ad5576040517f08c379a0000000000000000000000000000000000000000000000000000000008152600401610acc90613082565b60405180910390fd5b60016006600085815260200190815260200160002060030160006101000a81548160ff0219169083151502179055504260066000858152602001908152602001600020600401819055508160066000858152602001908152602001600020600201819055506001905092915050565b60606000805b600954811015610b9f576006600082815260200190815260200160002060030160009054906101000a900460ff1615610b8c578180610b8890612f5c565b9250505b8080610b9790612f5c565b915050610b4a565b5060008167ffffffffffffffff811115610bbc57610bbb612c16565b5b604051908082528060200260200182016040528015610bf557816020015b610be2612587565b815260200190600190039081610bda5790505b5090506000915060005b600954811015610d1f576006600082815260200190815260200160002060030160009054906101000a900460ff1615610d0c57600660008281526020019081526020016000206040518060a00160405290816000820160009054906101000a900473ffffffffffffffffffffffffffffffffffffffff1673ffffffffffffffffffffffffffffffffffffffff1673ffffffffffffffffffffffffffffffffffffffff16815260200160018201548152602001600282015481526020016003820160009054906101000a900460ff16151515158152602001600482015481525050828481518110610cf257610cf16130a2565b5b60200260200101819052508280610d0890612f5c565b9350505b8080610d1790612f5c565b915050610bff565b50809250505090565b60008073ffffffffffffffffffffffffffffffffffffffff168273ffffffffffffffffffffffffffffffffffffffff1603610d9b5760006040517f89c62b64000000000000000000000000000000000000000000000000000000008152600401610d9291906127f3565b60405180910390fd5b600360008373ffffffffffffffffffffffffffffffffffffffff1673ffffffffffffffffffffffffffffffffffffffff168152602001908152602001600020549050919050565b606060018054610df190612e33565b80601f0160208091040260200160405190810160405280929190818152602001828054610e1d90612e33565b8015610e6a5780601f10610e3f57610100808354040283529160200191610e6a565b820191906000526020600020905b815481529060010190602001808311610e4d57829003601f168201915b5050505050905090565b610e86610e7f611808565b8383611b35565b5050565b610e92612587565b600660008381526020019081526020016000206040518060a00160405290816000820160009054906101000a900473ffffffffffffffffffffffffffffffffffffffff1673ffffffffffffffffffffffffffffffffffffffff1673ffffffffffffffffffffffffffffffffffffffff16815260200160018201548152602001600282015481526020016003820160009054906101000a900460ff161515151581526020016004820154815250509050919050565b60066020528060005260406000206000915090508060000160009054906101000a900473ffffffffffffffffffffffffffffffffffffffff16908060010154908060020154908060030160009054906101000a900460ff16908060040154905085565b60606000805b600954811015611044573373ffffffffffffffffffffffffffffffffffffffff166006600083815260200190815260200160002060000160009054906101000a900473ffffffffffffffffffffffffffffffffffffffff1673ffffffffffffffffffffffffffffffffffffffff160361103157818061102d90612f5c565b9250505b808061103c90612f5c565b915050610faf565b5060008167ffffffffffffffff81111561106157611060612c16565b5b60405190808252806020026020018201604052801561109a57816020015b611087612587565b81526020019060019003908161107f5790505b5090506000915060005b600954811015611204573373ffffffffffffffffffffffffffffffffffffffff166006600083815260200190815260200160002060000160009054906101000a900473ffffffffffffffffffffffffffffffffffffffff1673ffffffffffffffffffffffffffffffffffffffff16036111f157600660008281526020019081526020016000206040518060a00160405290816000820160009054906101000a900473ffffffffffffffffffffffffffffffffffffffff1673ffffffffffffffffffffffffffffffffffffffff1673ffffffffffffffffffffffffffffffffffffffff16815260200160018201548152602001600282015481526020016003820160009054906101000a900460ff161515151581526020016004820154815250508284815181106111d7576111d66130a2565b5b602002602001018190525082806111ed90612f5c565b9350505b80806111fc90612f5c565b9150506110a4565b50809250505090565b61121884848461063f565b61122484848484611ca4565b50505050565b606061123582611743565b506000611240611e5b565b90506000815111611260576040518060200160405280600081525061128b565b8061126a84611e72565b60405160200161127b92919061310d565b6040516020818303038152906040525b915050919050565b600a6020528060005260406000206000915054906101000a900460ff1681565b6000600560008473ffffffffffffffffffffffffffffffffffffffff1673ffffffffffffffffffffffffffffffffffffffff16815260200190815260200160002060008373ffffffffffffffffffffffffffffffffffffffff1673ffffffffffffffffffffffffffffffffffffffff16815260200190815260200160002060009054906101000a900460ff16905092915050565b60006006600083815260200190815260200160002060030160009054906101000a900460ff166113ac576040517f08c379a00000000000000000000000000000000000000000000000000000000081526004016113a39061317d565b60405180910390fd5b6006600083815260200190815260200160002060000160009054906101000a900473ffffffffffffffffffffffffffffffffffffffff1673ffffffffffffffffffffffffffffffffffffffff163373ffffffffffffffffffffffffffffffffffffffff1603611450576040517f08c379a0000000000000000000000000000000000000000000000000000000008152600401611447906131e9565b60405180910390fd5b60066000838152602001908152602001600020600201543373ffffffffffffffffffffffffffffffffffffffff163110156114c0576040517f08c379a00000000000000000000000000000000000000000000000000000000081526004016114b790613255565b60405180910390fd5b6000600a60066000858152602001908152602001600020600201546114e591906132a4565b9050600860009054906101000a900473ffffffffffffffffffffffffffffffffffffffff1673ffffffffffffffffffffffffffffffffffffffff166108fc829081150290604051600060405180830381858888f1935050505015801561154f573d6000803e3d6000fd5b506006600084815260200190815260200160002060000160009054906101000a900473ffffffffffffffffffffffffffffffffffffffff1673ffffffffffffffffffffffffffffffffffffffff166108fc8260066000878152602001908152602001600020600201546115c291906132d5565b9081150290604051600060405180830381858888f193505050501580156115ed573d6000803e3d6000fd5b5061162f6006600085815260200190815260200160002060000160009054906101000a900473ffffffffffffffffffffffffffffffffffffffff163385611f40565b60006006600085815260200190815260200160002060030160006101000a81548160ff02191690831515021790555060006006600085815260200190815260200160002060040181905550336006600085815260200190815260200160002060000160006101000a81548173ffffffffffffffffffffffffffffffffffffffff021916908373ffffffffffffffffffffffffffffffffffffffff1602179055506001915050919050565b60007f01ffc9a7000000000000000000000000000000000000000000000000000000007bffffffffffffffffffffffffffffffffffffffffffffffffffffffff1916827bffffffffffffffffffffffffffffffffffffffffffffffffffffffff1916149050919050565b60008061174f836120ad565b9050600073ffffffffffffffffffffffffffffffffffffffff168173ffffffffffffffffffffffffffffffffffffffff16036117c257826040517f7e2732890000000000000000000000000000000000000000000000000000000081526004016117b99190612aaf565b60405180910390fd5b80915050919050565b60006004600083815260200190815260200160002060009054906101000a900473ffffffffffffffffffffffffffffffffffffffff169050919050565b600033905090565b61181d83838360016120ea565b505050565b60008061182e846120ad565b9050600073ffffffffffffffffffffffffffffffffffffffff168373ffffffffffffffffffffffffffffffffffffffff16146118705761186f8184866122af565b5b600073ffffffffffffffffffffffffffffffffffffffff168173ffffffffffffffffffffffffffffffffffffffff1614611901576118b26000856000806120ea565b6001600360008373ffffffffffffffffffffffffffffffffffffffff1673ffffffffffffffffffffffffffffffffffffffff168152602001908152602001600020600082825403925050819055505b600073ffffffffffffffffffffffffffffffffffffffff168573ffffffffffffffffffffffffffffffffffffffff1614611984576001600360008773ffffffffffffffffffffffffffffffffffffffff1673ffffffffffffffffffffffffffffffffffffffff168152602001908152602001600020600082825401925050819055505b846002600086815260200190815260200160002060006101000a81548173ffffffffffffffffffffffffffffffffffffffff021916908373ffffffffffffffffffffffffffffffffffffffff160217905550838573ffffffffffffffffffffffffffffffffffffffff168273ffffffffffffffffffffffffffffffffffffffff167fddf252ad1be2c89b69c2b068fc378daa952ba7f163c4a11628f55a4df523b3ef60405160405180910390a4809150509392505050565b600073ffffffffffffffffffffffffffffffffffffffff168273ffffffffffffffffffffffffffffffffffffffff1603611aae5760006040517f64a0ae92000000000000000000000000000000000000000000000000000000008152600401611aa591906127f3565b60405180910390fd5b6000611abc83836000611822565b9050600073ffffffffffffffffffffffffffffffffffffffff168173ffffffffffffffffffffffffffffffffffffffff1614611b305760006040517f73c6ac6e000000000000000000000000000000000000000000000000000000008152600401611b2791906127f3565b60405180910390fd5b505050565b600073ffffffffffffffffffffffffffffffffffffffff168273ffffffffffffffffffffffffffffffffffffffff1603611ba657816040517f5b08ba18000000000000000000000000000000000000000000000000000000008152600401611b9d91906127f3565b60405180910390fd5b80600560008573ffffffffffffffffffffffffffffffffffffffff1673ffffffffffffffffffffffffffffffffffffffff16815260200190815260200160002060008473ffffffffffffffffffffffffffffffffffffffff1673ffffffffffffffffffffffffffffffffffffffff16815260200190815260200160002060006101000a81548160ff0219169083151502179055508173ffffffffffffffffffffffffffffffffffffffff168373ffffffffffffffffffffffffffffffffffffffff167f17307eab39ab6107e8899845ad3d59bd9653f200f220920489ca2b5937696c3183604051611c979190612682565b60405180910390a3505050565b60008373ffffffffffffffffffffffffffffffffffffffff163b1115611e55578273ffffffffffffffffffffffffffffffffffffffff1663150b7a02611ce8611808565b8685856040518563ffffffff1660e01b8152600401611d0a949392919061335e565b6020604051808303816000875af1925050508015611d4657506040513d601f19601f82011682018060405250810190611d4391906133bf565b60015b611dca573d8060008114611d76576040519150601f19603f3d011682016040523d82523d6000602084013e611d7b565b606091505b506000815103611dc257836040517f64a0ae92000000000000000000000000000000000000000000000000000000008152600401611db991906127f3565b60405180910390fd5b805181602001fd5b63150b7a0260e01b7bffffffffffffffffffffffffffffffffffffffffffffffffffffffff1916817bffffffffffffffffffffffffffffffffffffffffffffffffffffffff191614611e5357836040517f64a0ae92000000000000000000000000000000000000000000000000000000008152600401611e4a91906127f3565b60405180910390fd5b505b50505050565b606060405180602001604052806000815250905090565b606060006001611e8184612373565b01905060008167ffffffffffffffff811115611ea057611e9f612c16565b5b6040519080825280601f01601f191660200182016040528015611ed25781602001600182028036833780820191505090505b509050600082602001820190505b600115611f35578080600190039150507f3031323334353637383961626364656600000000000000000000000000000000600a86061a8153600a8581611f2957611f28613275565b5b04945060008503611ee0575b819350505050919050565b600073ffffffffffffffffffffffffffffffffffffffff168273ffffffffffffffffffffffffffffffffffffffff1603611fb25760006040517f64a0ae92000000000000000000000000000000000000000000000000000000008152600401611fa991906127f3565b60405180910390fd5b6000611fc083836000611822565b9050600073ffffffffffffffffffffffffffffffffffffffff168173ffffffffffffffffffffffffffffffffffffffff160361203357816040517f7e27328900000000000000000000000000000000000000000000000000000000815260040161202a9190612aaf565b60405180910390fd5b8373ffffffffffffffffffffffffffffffffffffffff168173ffffffffffffffffffffffffffffffffffffffff16146120a7578382826040517f64283d7b00000000000000000000000000000000000000000000000000000000815260040161209e93929190612e64565b60405180910390fd5b50505050565b60006002600083815260200190815260200160002060009054906101000a900473ffffffffffffffffffffffffffffffffffffffff169050919050565b80806121235750600073ffffffffffffffffffffffffffffffffffffffff168273ffffffffffffffffffffffffffffffffffffffff1614155b1561225757600061213384611743565b9050600073ffffffffffffffffffffffffffffffffffffffff168373ffffffffffffffffffffffffffffffffffffffff161415801561219e57508273ffffffffffffffffffffffffffffffffffffffff168173ffffffffffffffffffffffffffffffffffffffff1614155b80156121b157506121af81846112b3565b155b156121f357826040517fa9fbf51f0000000000000000000000000000000000000000000000000000000081526004016121ea91906127f3565b60405180910390fd5b811561225557838573ffffffffffffffffffffffffffffffffffffffff168273ffffffffffffffffffffffffffffffffffffffff167f8c5be1e5ebec7d5bd14f71427d1e84f3dd0314c0f7b2291e5b200ac8c7c3b92560405160405180910390a45b505b836004600085815260200190815260200160002060006101000a81548173ffffffffffffffffffffffffffffffffffffffff021916908373ffffffffffffffffffffffffffffffffffffffff16021790555050505050565b6122ba8383836124c6565b61236e57600073ffffffffffffffffffffffffffffffffffffffff168373ffffffffffffffffffffffffffffffffffffffff160361232f57806040517f7e2732890000000000000000000000000000000000000000000000000000000081526004016123269190612aaf565b60405180910390fd5b81816040517f177e802f0000000000000000000000000000000000000000000000000000000081526004016123659291906133ec565b60405180910390fd5b505050565b600080600090507a184f03e93ff9f4daa797ed6e38ed64bf6a1f01000000000000000083106123d1577a184f03e93ff9f4daa797ed6e38ed64bf6a1f01000000000000000083816123c7576123c6613275565b5b0492506040810190505b6d04ee2d6d415b85acef8100000000831061240e576d04ee2d6d415b85acef8100000000838161240457612403613275565b5b0492506020810190505b662386f26fc10000831061243d57662386f26fc10000838161243357612432613275565b5b0492506010810190505b6305f5e1008310612466576305f5e100838161245c5761245b613275565b5b0492506008810190505b612710831061248b57612710838161248157612480613275565b5b0492506004810190505b606483106124ae57606483816124a4576124a3613275565b5b0492506002810190505b600a83106124bd576001810190505b80915050919050565b60008073ffffffffffffffffffffffffffffffffffffffff168373ffffffffffffffffffffffffffffffffffffffff161415801561257e57508273ffffffffffffffffffffffffffffffffffffffff168473ffffffffffffffffffffffffffffffffffffffff16148061253f575061253e84846112b3565b5b8061257d57508273ffffffffffffffffffffffffffffffffffffffff16612565836117cb565b73ffffffffffffffffffffffffffffffffffffffff16145b5b90509392505050565b6040518060a00160405280600073ffffffffffffffffffffffffffffffffffffffff1681526020016000815260200160008152602001600015158152602001600081525090565b6000604051905090565b600080fd5b600080fd5b60007fffffffff0000000000000000000000000000000000000000000000000000000082169050919050565b612617816125e2565b811461262257600080fd5b50565b6000813590506126348161260e565b92915050565b6000602082840312156126505761264f6125d8565b5b600061265e84828501612625565b91505092915050565b60008115159050919050565b61267c81612667565b82525050565b60006020820190506126976000830184612673565b92915050565b600081519050919050565b600082825260208201905092915050565b60005b838110156126d75780820151818401526020810190506126bc565b60008484015250505050565b6000601f19601f8301169050919050565b60006126ff8261269d565b61270981856126a8565b93506127198185602086016126b9565b612722816126e3565b840191505092915050565b6000602082019050818103600083015261274781846126f4565b905092915050565b6000819050919050565b6127628161274f565b811461276d57600080fd5b50565b60008135905061277f81612759565b92915050565b60006020828403121561279b5761279a6125d8565b5b60006127a984828501612770565b91505092915050565b600073ffffffffffffffffffffffffffffffffffffffff82169050919050565b60006127dd826127b2565b9050919050565b6127ed816127d2565b82525050565b600060208201905061280860008301846127e4565b92915050565b612817816127d2565b811461282257600080fd5b50565b6000813590506128348161280e565b92915050565b60008060408385031215612851576128506125d8565b5b600061285f85828601612825565b925050602061287085828601612770565b9150509250929050565b600080600060608486031215612893576128926125d8565b5b60006128a186828701612825565b93505060206128b286828701612825565b92505060406128c386828701612770565b9150509250925092565b600080604083850312156128e4576128e36125d8565b5b60006128f285828601612770565b925050602061290385828601612770565b9150509250929050565b600081519050919050565b600082825260208201905092915050565b6000819050602082019050919050565b612942816127d2565b82525050565b6129518161274f565b82525050565b61296081612667565b82525050565b60a08201600082015161297c6000850182612939565b50602082015161298f6020850182612948565b5060408201516129a26040850182612948565b5060608201516129b56060850182612957565b5060808201516129c86080850182612948565b50505050565b60006129da8383612966565b60a08301905092915050565b6000602082019050919050565b60006129fe8261290d565b612a088185612918565b9350612a1383612929565b8060005b83811015612a44578151612a2b88826129ce565b9750612a36836129e6565b925050600181019050612a17565b5085935050505092915050565b60006020820190508181036000830152612a6b81846129f3565b905092915050565b600060208284031215612a8957612a886125d8565b5b6000612a9784828501612825565b91505092915050565b612aa98161274f565b82525050565b6000602082019050612ac46000830184612aa0565b92915050565b612ad381612667565b8114612ade57600080fd5b50565b600081359050612af081612aca565b92915050565b60008060408385031215612b0d57612b0c6125d8565b5b6000612b1b85828601612825565b9250506020612b2c85828601612ae1565b9150509250929050565b60a082016000820151612b4c6000850182612939565b506020820151612b5f6020850182612948565b506040820151612b726040850182612948565b506060820151612b856060850182612957565b506080820151612b986080850182612948565b50505050565b600060a082019050612bb36000830184612b36565b92915050565b600060a082019050612bce60008301886127e4565b612bdb6020830187612aa0565b612be86040830186612aa0565b612bf56060830185612673565b612c026080830184612aa0565b9695505050505050565b600080fd5b600080fd5b7f4e487b7100000000000000000000000000000000000000000000000000000000600052604160045260246000fd5b612c4e826126e3565b810181811067ffffffffffffffff82111715612c6d57612c6c612c16565b5b80604052505050565b6000612c806125ce565b9050612c8c8282612c45565b919050565b600067ffffffffffffffff821115612cac57612cab612c16565b5b612cb5826126e3565b9050602081019050919050565b82818337600083830152505050565b6000612ce4612cdf84612c91565b612c76565b905082815260208101848484011115612d0057612cff612c11565b5b612d0b848285612cc2565b509392505050565b600082601f830112612d2857612d27612c0c565b5b8135612d38848260208601612cd1565b91505092915050565b60008060008060808587031215612d5b57612d5a6125d8565b5b6000612d6987828801612825565b9450506020612d7a87828801612825565b9350506040612d8b87828801612770565b925050606085013567ffffffffffffffff811115612dac57612dab6125dd565b5b612db887828801612d13565b91505092959194509250565b60008060408385031215612ddb57612dda6125d8565b5b6000612de985828601612825565b9250506020612dfa85828601612825565b9150509250929050565b7f4e487b7100000000000000000000000000000000000000000000000000000000600052602260045260246000fd5b60006002820490506001821680612e4b57607f821691505b602082108103612e5e57612e5d612e04565b5b50919050565b6000606082019050612e7960008301866127e4565b612e866020830185612aa0565b612e9360408301846127e4565b949350505050565b7f5468697320757365722068617320636c61696d65642061697264726f7020616c60008201527f7265616479000000000000000000000000000000000000000000000000000000602082015250565b6000612ef76025836126a8565b9150612f0282612e9b565b604082019050919050565b60006020820190508181036000830152612f2681612eea565b9050919050565b7f4e487b7100000000000000000000000000000000000000000000000000000000600052601160045260246000fd5b6000612f678261274f565b91507fffffffffffffffffffffffffffffffffffffffffffffffffffffffffffffffff8203612f9957612f98612f2d565b5b600182019050919050565b7f596f7520617265206e6f7420746865206f776e6572206f66207468697320686f60008201527f7573650000000000000000000000000000000000000000000000000000000000602082015250565b60006130006023836126a8565b915061300b82612fa4565b604082019050919050565b6000602082019050818103600083015261302f81612ff3565b9050919050565b7f5468697320686f75736520697320616c7265616479206f6e2073616c65000000600082015250565b600061306c601d836126a8565b915061307782613036565b602082019050919050565b6000602082019050818103600083015261309b8161305f565b9050919050565b7f4e487b7100000000000000000000000000000000000000000000000000000000600052603260045260246000fd5b600081905092915050565b60006130e78261269d565b6130f181856130d1565b93506131018185602086016126b9565b80840191505092915050565b600061311982856130dc565b915061312582846130dc565b91508190509392505050565b7f5468697320686f757365206973206e6f74206f6e2073616c6500000000000000600082015250565b60006131676019836126a8565b915061317282613131565b602082019050919050565b600060208201905081810360008301526131968161315a565b9050919050565b7f596f752063616e6e6f742062757920796f7572206f776e20686f757365000000600082015250565b60006131d3601d836126a8565b91506131de8261319d565b602082019050919050565b60006020820190508181036000830152613202816131c6565b9050919050565b7f596f7520646f6e2774206861766520656e6f7567682062616c616e6365000000600082015250565b600061323f601d836126a8565b915061324a82613209565b602082019050919050565b6000602082019050818103600083015261326e81613232565b9050919050565b7f4e487b7100000000000000000000000000000000000000000000000000000000600052601260045260246000fd5b60006132af8261274f565b91506132ba8361274f565b9250826132ca576132c9613275565b5b828204905092915050565b60006132e08261274f565b91506132eb8361274f565b925082820390508181111561330357613302612f2d565b5b92915050565b600081519050919050565b600082825260208201905092915050565b600061333082613309565b61333a8185613314565b935061334a8185602086016126b9565b613353816126e3565b840191505092915050565b600060808201905061337360008301876127e4565b61338060208301866127e4565b61338d6040830185612aa0565b818103606083015261339f8184613325565b905095945050505050565b6000815190506133b98161260e565b92915050565b6000602082840312156133d5576133d46125d8565b5b60006133e3848285016133aa565b91505092915050565b600060408201905061340160008301856127e4565b61340e6020830184612aa0565b939250505056fea2646970667358221220baa583bc767a7b9def384c22a437ab8a7cd904a4ac0c168a73aba36c9e464fdd64736f6c63430008140033",
  "linkReferences": {},
  "deployedLinkReferences": {}
}