{
  "_format": "hh-sol-artifact-1",
  "contractName": "BuyMyRoom",
  "sourceName": "contracts/BuyMyRoom.sol",
  "abi": [
    {
      "inputs": [
        {
          "internalType": "string",
          "name": "name",
          "type": "string"
        },
        {
          "internalType": "string",
          "name": "symbol",
          "type": "string"
        }
      ],
      "stateMutability": "nonpayable",
      "type": "constructor"
    },
    {
      "inputs": [
        {
          "internalType": "address",
          "name": "sender",
          "type": "address"
        },
        {
          "internalType": "uint256",
          "name": "tokenId",
          "type": "uint256"
        },
        {
          "internalType": "address",
          "name": "owner",
          "type": "address"
        }
      ],
      "name": "ERC721IncorrectOwner",
      "type": "error"
    },
    {
      "inputs": [
        {
          "internalType": "address",
          "name": "operator",
          "type": "address"
        },
        {
          "internalType": "uint256",
          "name": "tokenId",
          "type": "uint256"
        }
      ],
      "name": "ERC721InsufficientApproval",
      "type": "error"
    },
    {
      "inputs": [
        {
          "internalType": "address",
          "name": "approver",
          "type": "address"
        }
      ],
      "name": "ERC721InvalidApprover",
      "type": "error"
    },
    {
      "inputs": [
        {
          "internalType": "address",
          "name": "operator",
          "type": "address"
        }
      ],
      "name": "ERC721InvalidOperator",
      "type": "error"
    },
    {
      "inputs": [
        {
          "internalType": "address",
          "name": "owner",
          "type": "address"
        }
      ],
      "name": "ERC721InvalidOwner",
      "type": "error"
    },
    {
      "inputs": [
        {
          "internalType": "address",
          "name": "receiver",
          "type": "address"
        }
      ],
      "name": "ERC721InvalidReceiver",
      "type": "error"
    },
    {
      "inputs": [
        {
          "internalType": "address",
          "name": "sender",
          "type": "address"
        }
      ],
      "name": "ERC721InvalidSender",
      "type": "error"
    },
    {
      "inputs": [
        {
          "internalType": "uint256",
          "name": "tokenId",
          "type": "uint256"
        }
      ],
      "name": "ERC721NonexistentToken",
      "type": "error"
    },
    {
      "anonymous": false,
      "inputs": [
        {
          "indexed": true,
          "internalType": "address",
          "name": "owner",
          "type": "address"
        },
        {
          "indexed": true,
          "internalType": "address",
          "name": "approved",
          "type": "address"
        },
        {
          "indexed": true,
          "internalType": "uint256",
          "name": "tokenId",
          "type": "uint256"
        }
      ],
      "name": "Approval",
      "type": "event"
    },
    {
      "anonymous": false,
      "inputs": [
        {
          "indexed": true,
          "internalType": "address",
          "name": "owner",
          "type": "address"
        },
        {
          "indexed": true,
          "internalType": "address",
          "name": "operator",
          "type": "address"
        },
        {
          "indexed": false,
          "internalType": "bool",
          "name": "approved",
          "type": "bool"
        }
      ],
      "name": "ApprovalForAll",
      "type": "event"
    },
    {
      "anonymous": false,
      "inputs": [
        {
          "indexed": false,
          "internalType": "uint256",
          "name": "tokenId",
          "type": "uint256"
        },
        {
          "indexed": false,
          "internalType": "uint256",
          "name": "price",
          "type": "uint256"
        },
        {
          "indexed": false,
          "internalType": "address",
          "name": "owner",
          "type": "address"
        }
      ],
      "name": "HouseListed",
      "type": "event"
    },
    {
      "anonymous": false,
      "inputs": [
        {
          "indexed": true,
          "internalType": "address",
          "name": "from",
          "type": "address"
        },
        {
          "indexed": true,
          "internalType": "address",
          "name": "to",
          "type": "address"
        },
        {
          "indexed": true,
          "internalType": "uint256",
          "name": "tokenId",
          "type": "uint256"
        }
      ],
      "name": "Transfer",
      "type": "event"
    },
    {
      "inputs": [
        {
          "internalType": "address",
          "name": "",
          "type": "address"
        }
      ],
      "name": "AirDropped",
      "outputs": [
        {
          "internalType": "bool",
          "name": "",
          "type": "bool"
        }
      ],
      "stateMutability": "view",
      "type": "function"
    },
    {
      "inputs": [],
      "name": "airdrop",
      "outputs": [],
      "stateMutability": "nonpayable",
      "type": "function"
    },
    {
      "inputs": [
        {
          "internalType": "address",
          "name": "to",
          "type": "address"
        },
        {
          "internalType": "uint256",
          "name": "tokenId",
          "type": "uint256"
        }
      ],
      "name": "approve",
      "outputs": [],
      "stateMutability": "nonpayable",
      "type": "function"
    },
    {
      "inputs": [
        {
          "internalType": "address",
          "name": "owner",
          "type": "address"
        }
      ],
      "name": "balanceOf",
      "outputs": [
        {
          "internalType": "uint256",
          "name": "",
          "type": "uint256"
        }
      ],
      "stateMutability": "view",
      "type": "function"
    },
    {
      "inputs": [
        {
          "internalType": "uint256",
          "name": "houseId",
          "type": "uint256"
        }
      ],
      "name": "buyHouse",
      "outputs": [
        {
          "internalType": "bool",
          "name": "",
          "type": "bool"
        }
      ],
      "stateMutability": "nonpayable",
      "type": "function"
    },
    {
      "inputs": [
        {
          "internalType": "uint256",
          "name": "tokenId",
          "type": "uint256"
        }
      ],
      "name": "getApproved",
      "outputs": [
        {
          "internalType": "address",
          "name": "",
          "type": "address"
        }
      ],
      "stateMutability": "view",
      "type": "function"
    },
    {
      "inputs": [
        {
          "internalType": "uint256",
          "name": "houseId",
          "type": "uint256"
        }
      ],
      "name": "getHouseInfo",
      "outputs": [
        {
          "components": [
            {
              "internalType": "uint256",
              "name": "tokenId",
              "type": "uint256"
            },
            {
              "internalType": "address",
              "name": "owner",
              "type": "address"
            },
            {
              "internalType": "uint256",
              "name": "listedTimestamp",
              "type": "uint256"
            },
            {
              "internalType": "uint256",
              "name": "price",
              "type": "uint256"
            },
            {
              "internalType": "bool",
              "name": "onSale",
              "type": "bool"
            },
            {
              "internalType": "uint256",
              "name": "onSaleTimestamp",
              "type": "uint256"
            }
          ],
          "internalType": "struct BuyMyRoom.House",
          "name": "",
          "type": "tuple"
        }
      ],
      "stateMutability": "view",
      "type": "function"
    },
    {
      "inputs": [],
      "name": "getManager",
      "outputs": [
        {
          "internalType": "address",
          "name": "",
          "type": "address"
        }
      ],
      "stateMutability": "view",
      "type": "function"
    },
    {
      "inputs": [],
      "name": "getMyHouses",
      "outputs": [
        {
          "components": [
            {
              "internalType": "uint256",
              "name": "tokenId",
              "type": "uint256"
            },
            {
              "internalType": "address",
              "name": "owner",
              "type": "address"
            },
            {
              "internalType": "uint256",
              "name": "listedTimestamp",
              "type": "uint256"
            },
            {
              "internalType": "uint256",
              "name": "price",
              "type": "uint256"
            },
            {
              "internalType": "bool",
              "name": "onSale",
              "type": "bool"
            },
            {
              "internalType": "uint256",
              "name": "onSaleTimestamp",
              "type": "uint256"
            }
          ],
          "internalType": "struct BuyMyRoom.House[]",
          "name": "",
          "type": "tuple[]"
        }
      ],
      "stateMutability": "view",
      "type": "function"
    },
    {
      "inputs": [],
      "name": "getSellingHouses",
      "outputs": [
        {
          "components": [
            {
              "internalType": "uint256",
              "name": "tokenId",
              "type": "uint256"
            },
            {
              "internalType": "address",
              "name": "owner",
              "type": "address"
            },
            {
              "internalType": "uint256",
              "name": "listedTimestamp",
              "type": "uint256"
            },
            {
              "internalType": "uint256",
              "name": "price",
              "type": "uint256"
            },
            {
              "internalType": "bool",
              "name": "onSale",
              "type": "bool"
            },
            {
              "internalType": "uint256",
              "name": "onSaleTimestamp",
              "type": "uint256"
            }
          ],
          "internalType": "struct BuyMyRoom.House[]",
          "name": "",
          "type": "tuple[]"
        }
      ],
      "stateMutability": "view",
      "type": "function"
    },
    {
      "inputs": [
        {
          "internalType": "uint256",
          "name": "",
          "type": "uint256"
        }
      ],
      "name": "houses",
      "outputs": [
        {
          "internalType": "uint256",
          "name": "tokenId",
          "type": "uint256"
        },
        {
          "internalType": "address",
          "name": "owner",
          "type": "address"
        },
        {
          "internalType": "uint256",
          "name": "listedTimestamp",
          "type": "uint256"
        },
        {
          "internalType": "uint256",
          "name": "price",
          "type": "uint256"
        },
        {
          "internalType": "bool",
          "name": "onSale",
          "type": "bool"
        },
        {
          "internalType": "uint256",
          "name": "onSaleTimestamp",
          "type": "uint256"
        }
      ],
      "stateMutability": "view",
      "type": "function"
    },
    {
      "inputs": [
        {
          "internalType": "address",
          "name": "owner",
          "type": "address"
        },
        {
          "internalType": "address",
          "name": "operator",
          "type": "address"
        }
      ],
      "name": "isApprovedForAll",
      "outputs": [
        {
          "internalType": "bool",
          "name": "",
          "type": "bool"
        }
      ],
      "stateMutability": "view",
      "type": "function"
    },
    {
      "inputs": [],
      "name": "name",
      "outputs": [
        {
          "internalType": "string",
          "name": "",
          "type": "string"
        }
      ],
      "stateMutability": "view",
      "type": "function"
    },
    {
      "inputs": [
        {
          "internalType": "uint256",
          "name": "tokenId",
          "type": "uint256"
        }
      ],
      "name": "ownerOf",
      "outputs": [
        {
          "internalType": "address",
          "name": "",
          "type": "address"
        }
      ],
      "stateMutability": "view",
      "type": "function"
    },
    {
      "inputs": [
        {
          "internalType": "address",
          "name": "from",
          "type": "address"
        },
        {
          "internalType": "address",
          "name": "to",
          "type": "address"
        },
        {
          "internalType": "uint256",
          "name": "tokenId",
          "type": "uint256"
        }
      ],
      "name": "safeTransferFrom",
      "outputs": [],
      "stateMutability": "nonpayable",
      "type": "function"
    },
    {
      "inputs": [
        {
          "internalType": "address",
          "name": "from",
          "type": "address"
        },
        {
          "internalType": "address",
          "name": "to",
          "type": "address"
        },
        {
          "internalType": "uint256",
          "name": "tokenId",
          "type": "uint256"
        },
        {
          "internalType": "bytes",
          "name": "data",
          "type": "bytes"
        }
      ],
      "name": "safeTransferFrom",
      "outputs": [],
      "stateMutability": "nonpayable",
      "type": "function"
    },
    {
      "inputs": [
        {
          "internalType": "uint256",
          "name": "houseId",
          "type": "uint256"
        },
        {
          "internalType": "uint256",
          "name": "price",
          "type": "uint256"
        }
      ],
      "name": "saleHouse",
      "outputs": [
        {
          "internalType": "bool",
          "name": "",
          "type": "bool"
        }
      ],
      "stateMutability": "nonpayable",
      "type": "function"
    },
    {
      "inputs": [
        {
          "internalType": "address",
          "name": "operator",
          "type": "address"
        },
        {
          "internalType": "bool",
          "name": "approved",
          "type": "bool"
        }
      ],
      "name": "setApprovalForAll",
      "outputs": [],
      "stateMutability": "nonpayable",
      "type": "function"
    },
    {
      "inputs": [
        {
          "internalType": "bytes4",
          "name": "interfaceId",
          "type": "bytes4"
        }
      ],
      "name": "supportsInterface",
      "outputs": [
        {
          "internalType": "bool",
          "name": "",
          "type": "bool"
        }
      ],
      "stateMutability": "view",
      "type": "function"
    },
    {
      "inputs": [],
      "name": "symbol",
      "outputs": [
        {
          "internalType": "string",
          "name": "",
          "type": "string"
        }
      ],
      "stateMutability": "view",
      "type": "function"
    },
    {
      "inputs": [
        {
          "internalType": "uint256",
          "name": "tokenId",
          "type": "uint256"
        }
      ],
      "name": "tokenURI",
      "outputs": [
        {
          "internalType": "string",
          "name": "",
          "type": "string"
        }
      ],
      "stateMutability": "view",
      "type": "function"
    },
    {
      "inputs": [
        {
          "internalType": "address",
          "name": "from",
          "type": "address"
        },
        {
          "internalType": "address",
          "name": "to",
          "type": "address"
        },
        {
          "internalType": "uint256",
          "name": "tokenId",
          "type": "uint256"
        }
      ],
      "name": "transferFrom",
      "outputs": [],
      "stateMutability": "nonpayable",
      "type": "function"
    },
    {
      "inputs": [
        {
          "internalType": "uint256",
          "name": "",
          "type": "uint256"
        }
      ],
      "name": "users",
      "outputs": [
        {
          "internalType": "address",
          "name": "",
          "type": "address"
        }
      ],
      "stateMutability": "view",
      "type": "function"
    }
  ],
  "bytecode": "0x608060405260006009553480156200001657600080fd5b5060405162003b1538038062003b1583398181016040528101906200003c919062000240565b818181600090816200004f919062000510565b50806001908162000061919062000510565b50505033600860006101000a81548173ffffffffffffffffffffffffffffffffffffffff021916908373ffffffffffffffffffffffffffffffffffffffff1602179055505050620005f7565b6000604051905090565b600080fd5b600080fd5b600080fd5b600080fd5b6000601f19601f8301169050919050565b7f4e487b7100000000000000000000000000000000000000000000000000000000600052604160045260246000fd5b6200011682620000cb565b810181811067ffffffffffffffff82111715620001385762000137620000dc565b5b80604052505050565b60006200014d620000ad565b90506200015b82826200010b565b919050565b600067ffffffffffffffff8211156200017e576200017d620000dc565b5b6200018982620000cb565b9050602081019050919050565b60005b83811015620001b657808201518184015260208101905062000199565b60008484015250505050565b6000620001d9620001d38462000160565b62000141565b905082815260208101848484011115620001f857620001f7620000c6565b5b6200020584828562000196565b509392505050565b600082601f830112620002255762000224620000c1565b5b815162000237848260208601620001c2565b91505092915050565b600080604083850312156200025a5762000259620000b7565b5b600083015167ffffffffffffffff8111156200027b576200027a620000bc565b5b62000289858286016200020d565b925050602083015167ffffffffffffffff811115620002ad57620002ac620000bc565b5b620002bb858286016200020d565b9150509250929050565b600081519050919050565b7f4e487b7100000000000000000000000000000000000000000000000000000000600052602260045260246000fd5b600060028204905060018216806200031857607f821691505b6020821081036200032e576200032d620002d0565b5b50919050565b60008190508160005260206000209050919050565b60006020601f8301049050919050565b600082821b905092915050565b600060088302620003987fffffffffffffffffffffffffffffffffffffffffffffffffffffffffffffffff8262000359565b620003a4868362000359565b95508019841693508086168417925050509392505050565b6000819050919050565b6000819050919050565b6000620003f1620003eb620003e584620003bc565b620003c6565b620003bc565b9050919050565b6000819050919050565b6200040d83620003d0565b620004256200041c82620003f8565b84845462000366565b825550505050565b600090565b6200043c6200042d565b6200044981848462000402565b505050565b5b8181101562000471576200046560008262000432565b6001810190506200044f565b5050565b601f821115620004c0576200048a8162000334565b620004958462000349565b81016020851015620004a5578190505b620004bd620004b48562000349565b8301826200044e565b50505b505050565b600082821c905092915050565b6000620004e560001984600802620004c5565b1980831691505092915050565b6000620005008383620004d2565b9150826002028217905092915050565b6200051b82620002c5565b67ffffffffffffffff811115620005375762000536620000dc565b5b620005438254620002ff565b6200055082828562000475565b600060209050601f83116001811462000588576000841562000573578287015190505b6200057f8582620004f2565b865550620005ef565b601f198416620005988662000334565b60005b82811015620005c2578489015182556001820191506020850194506020810190506200059b565b86831015620005e25784890151620005de601f891682620004d2565b8355505b6001600288020188555050505b505050505050565b61350e80620006076000396000f3fe608060405234801561001057600080fd5b506004361061014d5760003560e01c806370a08231116100c3578063b88d4fde1161007c578063b88d4fde146103c9578063c87b56dd146103e5578063ca6628d314610415578063d500958414610445578063e985e9c514610463578063eddc4269146104935761014d565b806370a08231146102dc57806395d89b411461030c578063a22cb4651461032a578063ad50f56d14610346578063aeda852f14610376578063b14f1afd146103ab5761014d565b8063365b98b211610115578063365b98b2146102085780633884d6351461023857806342842e0e146102425780636352211e1461025e57806363f78c9b1461028e5780637042b0bc146102be5761014d565b806301ffc9a71461015257806306fdde0314610182578063081812fc146101a0578063095ea7b3146101d057806323b872dd146101ec575b600080fd5b61016c600480360381019061016791906126c9565b6104c3565b6040516101799190612711565b60405180910390f35b61018a6105a5565b60405161019791906127bc565b60405180910390f35b6101ba60048036038101906101b59190612814565b610637565b6040516101c79190612882565b60405180910390f35b6101ea60048036038101906101e591906128c9565b610653565b005b61020660048036038101906102019190612909565b610669565b005b610222600480360381019061021d9190612814565b61076b565b60405161022f9190612882565b60405180910390f35b6102406107aa565b005b61025c60048036038101906102579190612909565b6109cd565b005b61027860048036038101906102739190612814565b6109ed565b6040516102859190612882565b60405180910390f35b6102a860048036038101906102a3919061295c565b6109ff565b6040516102b59190612711565b60405180910390f35b6102c6610b7e565b6040516102d39190612af3565b60405180910390f35b6102f660048036038101906102f19190612b15565b610d6c565b6040516103039190612b51565b60405180910390f35b610314610e26565b60405161032191906127bc565b60405180910390f35b610344600480360381019061033f9190612b98565b610eb8565b005b610360600480360381019061035b9190612814565b610ece565b60405161036d9190612c53565b60405180910390f35b610390600480360381019061038b9190612814565b610f94565b6040516103a296959493929190612c6e565b60405180910390f35b6103b3610ffd565b6040516103c09190612af3565b60405180910390f35b6103e360048036038101906103de9190612e04565b61126b565b005b6103ff60048036038101906103fa9190612814565b611288565b60405161040c91906127bc565b60405180910390f35b61042f600480360381019061042a9190612b15565b6112f1565b60405161043c9190612711565b60405180910390f35b61044d611311565b60405161045a9190612882565b60405180910390f35b61047d60048036038101906104789190612e87565b61133b565b60405161048a9190612711565b60405180910390f35b6104ad60048036038101906104a89190612814565b6113cf565b6040516104ba9190612711565b60405180910390f35b60007f80ac58cd000000000000000000000000000000000000000000000000000000007bffffffffffffffffffffffffffffffffffffffffffffffffffffffff1916827bffffffffffffffffffffffffffffffffffffffffffffffffffffffff1916148061058e57507f5b5e139f000000000000000000000000000000000000000000000000000000007bffffffffffffffffffffffffffffffffffffffffffffffffffffffff1916827bffffffffffffffffffffffffffffffffffffffffffffffffffffffff1916145b8061059e575061059d82611761565b5b9050919050565b6060600080546105b490612ef6565b80601f01602080910402602001604051908101604052809291908181526020018280546105e090612ef6565b801561062d5780601f106106025761010080835404028352916020019161062d565b820191906000526020600020905b81548152906001019060200180831161061057829003601f168201915b5050505050905090565b6000610642826117cb565b5061064c82611853565b9050919050565b6106658282610660611890565b611898565b5050565b600073ffffffffffffffffffffffffffffffffffffffff168273ffffffffffffffffffffffffffffffffffffffff16036106db5760006040517f64a0ae920000000000000000000000000000000000000000000000000000000081526004016106d29190612882565b60405180910390fd5b60006106ef83836106ea611890565b6118aa565b90508373ffffffffffffffffffffffffffffffffffffffff168173ffffffffffffffffffffffffffffffffffffffff1614610765578382826040517f64283d7b00000000000000000000000000000000000000000000000000000000815260040161075c93929190612f27565b60405180910390fd5b50505050565b6007818154811061077b57600080fd5b906000526020600020016000915054906101000a900473ffffffffffffffffffffffffffffffffffffffff1681565b60001515600a60003373ffffffffffffffffffffffffffffffffffffffff1673ffffffffffffffffffffffffffffffffffffffff16815260200190815260200160002060009054906101000a900460ff1615151461083d576040517f08c379a000000000000000000000000000000000000000000000000000000000815260040161083490612fd0565b60405180910390fd5b6000805b6003811015610971576009549150600960008154809291906108629061301f565b91905055506108713383611ac4565b6040518060c001604052808381526020013373ffffffffffffffffffffffffffffffffffffffff168152602001428152602001600081526020016000151581526020016000815250600660008481526020019081526020016000206000820151816000015560208201518160010160006101000a81548173ffffffffffffffffffffffffffffffffffffffff021916908373ffffffffffffffffffffffffffffffffffffffff160217905550604082015181600201556060820151816003015560808201518160040160006101000a81548160ff02191690831515021790555060a0820151816005015590505080806109699061301f565b915050610841565b506001600a60003373ffffffffffffffffffffffffffffffffffffffff1673ffffffffffffffffffffffffffffffffffffffff16815260200190815260200160002060006101000a81548160ff02191690831515021790555050565b6109e88383836040518060200160405280600081525061126b565b505050565b60006109f8826117cb565b9050919050565b60003373ffffffffffffffffffffffffffffffffffffffff166006600085815260200190815260200160002060010160009054906101000a900473ffffffffffffffffffffffffffffffffffffffff1673ffffffffffffffffffffffffffffffffffffffff1614610aa5576040517f08c379a0000000000000000000000000000000000000000000000000000000008152600401610a9c906130d9565b60405180910390fd5b600015156006600085815260200190815260200160002060040160009054906101000a900460ff16151514610b0f576040517f08c379a0000000000000000000000000000000000000000000000000000000008152600401610b0690613145565b60405180910390fd5b60016006600085815260200190815260200160002060040160006101000a81548160ff0219169083151502179055504260066000858152602001908152602001600020600501819055508160066000858152602001908152602001600020600301819055506001905092915050565b60606000805b600954811015610bd9576006600082815260200190815260200160002060040160009054906101000a900460ff1615610bc6578180610bc29061301f565b9250505b8080610bd19061301f565b915050610b84565b5060008167ffffffffffffffff811115610bf657610bf5612cd9565b5b604051908082528060200260200182016040528015610c2f57816020015b610c1c61260f565b815260200190600190039081610c145790505b5090506000915060005b600954811015610d63576006600082815260200190815260200160002060040160009054906101000a900460ff1615610d5057600660008281526020019081526020016000206040518060c0016040529081600082015481526020016001820160009054906101000a900473ffffffffffffffffffffffffffffffffffffffff1673ffffffffffffffffffffffffffffffffffffffff1673ffffffffffffffffffffffffffffffffffffffff16815260200160028201548152602001600382015481526020016004820160009054906101000a900460ff16151515158152602001600582015481525050828481518110610d3657610d35613165565b5b60200260200101819052508280610d4c9061301f565b9350505b8080610d5b9061301f565b915050610c39565b50809250505090565b60008073ffffffffffffffffffffffffffffffffffffffff168273ffffffffffffffffffffffffffffffffffffffff1603610ddf5760006040517f89c62b64000000000000000000000000000000000000000000000000000000008152600401610dd69190612882565b60405180910390fd5b600360008373ffffffffffffffffffffffffffffffffffffffff1673ffffffffffffffffffffffffffffffffffffffff168152602001908152602001600020549050919050565b606060018054610e3590612ef6565b80601f0160208091040260200160405190810160405280929190818152602001828054610e6190612ef6565b8015610eae5780601f10610e8357610100808354040283529160200191610eae565b820191906000526020600020905b815481529060010190602001808311610e9157829003601f168201915b5050505050905090565b610eca610ec3611890565b8383611bbd565b5050565b610ed661260f565b600660008381526020019081526020016000206040518060c0016040529081600082015481526020016001820160009054906101000a900473ffffffffffffffffffffffffffffffffffffffff1673ffffffffffffffffffffffffffffffffffffffff1673ffffffffffffffffffffffffffffffffffffffff16815260200160028201548152602001600382015481526020016004820160009054906101000a900460ff161515151581526020016005820154815250509050919050565b60066020528060005260406000206000915090508060000154908060010160009054906101000a900473ffffffffffffffffffffffffffffffffffffffff16908060020154908060030154908060040160009054906101000a900460ff16908060050154905086565b60606000805b600954811015611098573373ffffffffffffffffffffffffffffffffffffffff166006600083815260200190815260200160002060010160009054906101000a900473ffffffffffffffffffffffffffffffffffffffff1673ffffffffffffffffffffffffffffffffffffffff16036110855781806110819061301f565b9250505b80806110909061301f565b915050611003565b5060008167ffffffffffffffff8111156110b5576110b4612cd9565b5b6040519080825280602002602001820160405280156110ee57816020015b6110db61260f565b8152602001906001900390816110d35790505b5090506000915060005b600954811015611262573373ffffffffffffffffffffffffffffffffffffffff166006600083815260200190815260200160002060010160009054906101000a900473ffffffffffffffffffffffffffffffffffffffff1673ffffffffffffffffffffffffffffffffffffffff160361124f57600660008281526020019081526020016000206040518060c0016040529081600082015481526020016001820160009054906101000a900473ffffffffffffffffffffffffffffffffffffffff1673ffffffffffffffffffffffffffffffffffffffff1673ffffffffffffffffffffffffffffffffffffffff16815260200160028201548152602001600382015481526020016004820160009054906101000a900460ff1615151515815260200160058201548152505082848151811061123557611234613165565b5b6020026020010181905250828061124b9061301f565b9350505b808061125a9061301f565b9150506110f8565b50809250505090565b611276848484610669565b61128284848484611d2c565b50505050565b6060611293826117cb565b50600061129e611ee3565b905060008151116112be57604051806020016040528060008152506112e9565b806112c884611efa565b6040516020016112d99291906131d0565b6040516020818303038152906040525b915050919050565b600a6020528060005260406000206000915054906101000a900460ff1681565b6000600860009054906101000a900473ffffffffffffffffffffffffffffffffffffffff16905090565b6000600560008473ffffffffffffffffffffffffffffffffffffffff1673ffffffffffffffffffffffffffffffffffffffff16815260200190815260200160002060008373ffffffffffffffffffffffffffffffffffffffff1673ffffffffffffffffffffffffffffffffffffffff16815260200190815260200160002060009054906101000a900460ff16905092915050565b60006006600083815260200190815260200160002060040160009054906101000a900460ff16611434576040517f08c379a000000000000000000000000000000000000000000000000000000000815260040161142b90613240565b60405180910390fd5b6006600083815260200190815260200160002060010160009054906101000a900473ffffffffffffffffffffffffffffffffffffffff1673ffffffffffffffffffffffffffffffffffffffff163373ffffffffffffffffffffffffffffffffffffffff16036114d8576040517f08c379a00000000000000000000000000000000000000000000000000000000081526004016114cf906132ac565b60405180910390fd5b60066000838152602001908152602001600020600301543373ffffffffffffffffffffffffffffffffffffffff16311015611548576040517f08c379a000000000000000000000000000000000000000000000000000000000815260040161153f90613318565b60405180910390fd5b6000600a600660008581526020019081526020016000206003015461156d9190613367565b9050600860009054906101000a900473ffffffffffffffffffffffffffffffffffffffff1673ffffffffffffffffffffffffffffffffffffffff166108fc829081150290604051600060405180830381858888f193505050501580156115d7573d6000803e3d6000fd5b506006600084815260200190815260200160002060010160009054906101000a900473ffffffffffffffffffffffffffffffffffffffff1673ffffffffffffffffffffffffffffffffffffffff166108fc82600660008781526020019081526020016000206003015461164a9190613398565b9081150290604051600060405180830381858888f19350505050158015611675573d6000803e3d6000fd5b506116b76006600085815260200190815260200160002060010160009054906101000a900473ffffffffffffffffffffffffffffffffffffffff163385611fc8565b60006006600085815260200190815260200160002060040160006101000a81548160ff02191690831515021790555060006006600085815260200190815260200160002060050181905550336006600085815260200190815260200160002060010160006101000a81548173ffffffffffffffffffffffffffffffffffffffff021916908373ffffffffffffffffffffffffffffffffffffffff1602179055506001915050919050565b60007f01ffc9a7000000000000000000000000000000000000000000000000000000007bffffffffffffffffffffffffffffffffffffffffffffffffffffffff1916827bffffffffffffffffffffffffffffffffffffffffffffffffffffffff1916149050919050565b6000806117d783612135565b9050600073ffffffffffffffffffffffffffffffffffffffff168173ffffffffffffffffffffffffffffffffffffffff160361184a57826040517f7e2732890000000000000000000000000000000000000000000000000000000081526004016118419190612b51565b60405180910390fd5b80915050919050565b60006004600083815260200190815260200160002060009054906101000a900473ffffffffffffffffffffffffffffffffffffffff169050919050565b600033905090565b6118a58383836001612172565b505050565b6000806118b684612135565b9050600073ffffffffffffffffffffffffffffffffffffffff168373ffffffffffffffffffffffffffffffffffffffff16146118f8576118f7818486612337565b5b600073ffffffffffffffffffffffffffffffffffffffff168173ffffffffffffffffffffffffffffffffffffffff16146119895761193a600085600080612172565b6001600360008373ffffffffffffffffffffffffffffffffffffffff1673ffffffffffffffffffffffffffffffffffffffff168152602001908152602001600020600082825403925050819055505b600073ffffffffffffffffffffffffffffffffffffffff168573ffffffffffffffffffffffffffffffffffffffff1614611a0c576001600360008773ffffffffffffffffffffffffffffffffffffffff1673ffffffffffffffffffffffffffffffffffffffff168152602001908152602001600020600082825401925050819055505b846002600086815260200190815260200160002060006101000a81548173ffffffffffffffffffffffffffffffffffffffff021916908373ffffffffffffffffffffffffffffffffffffffff160217905550838573ffffffffffffffffffffffffffffffffffffffff168273ffffffffffffffffffffffffffffffffffffffff167fddf252ad1be2c89b69c2b068fc378daa952ba7f163c4a11628f55a4df523b3ef60405160405180910390a4809150509392505050565b600073ffffffffffffffffffffffffffffffffffffffff168273ffffffffffffffffffffffffffffffffffffffff1603611b365760006040517f64a0ae92000000000000000000000000000000000000000000000000000000008152600401611b2d9190612882565b60405180910390fd5b6000611b44838360006118aa565b9050600073ffffffffffffffffffffffffffffffffffffffff168173ffffffffffffffffffffffffffffffffffffffff1614611bb85760006040517f73c6ac6e000000000000000000000000000000000000000000000000000000008152600401611baf9190612882565b60405180910390fd5b505050565b600073ffffffffffffffffffffffffffffffffffffffff168273ffffffffffffffffffffffffffffffffffffffff1603611c2e57816040517f5b08ba18000000000000000000000000000000000000000000000000000000008152600401611c259190612882565b60405180910390fd5b80600560008573ffffffffffffffffffffffffffffffffffffffff1673ffffffffffffffffffffffffffffffffffffffff16815260200190815260200160002060008473ffffffffffffffffffffffffffffffffffffffff1673ffffffffffffffffffffffffffffffffffffffff16815260200190815260200160002060006101000a81548160ff0219169083151502179055508173ffffffffffffffffffffffffffffffffffffffff168373ffffffffffffffffffffffffffffffffffffffff167f17307eab39ab6107e8899845ad3d59bd9653f200f220920489ca2b5937696c3183604051611d1f9190612711565b60405180910390a3505050565b60008373ffffffffffffffffffffffffffffffffffffffff163b1115611edd578273ffffffffffffffffffffffffffffffffffffffff1663150b7a02611d70611890565b8685856040518563ffffffff1660e01b8152600401611d929493929190613421565b6020604051808303816000875af1925050508015611dce57506040513d601f19601f82011682018060405250810190611dcb9190613482565b60015b611e52573d8060008114611dfe576040519150601f19603f3d011682016040523d82523d6000602084013e611e03565b606091505b506000815103611e4a57836040517f64a0ae92000000000000000000000000000000000000000000000000000000008152600401611e419190612882565b60405180910390fd5b805181602001fd5b63150b7a0260e01b7bffffffffffffffffffffffffffffffffffffffffffffffffffffffff1916817bffffffffffffffffffffffffffffffffffffffffffffffffffffffff191614611edb57836040517f64a0ae92000000000000000000000000000000000000000000000000000000008152600401611ed29190612882565b60405180910390fd5b505b50505050565b606060405180602001604052806000815250905090565b606060006001611f09846123fb565b01905060008167ffffffffffffffff811115611f2857611f27612cd9565b5b6040519080825280601f01601f191660200182016040528015611f5a5781602001600182028036833780820191505090505b509050600082602001820190505b600115611fbd578080600190039150507f3031323334353637383961626364656600000000000000000000000000000000600a86061a8153600a8581611fb157611fb0613338565b5b04945060008503611f68575b819350505050919050565b600073ffffffffffffffffffffffffffffffffffffffff168273ffffffffffffffffffffffffffffffffffffffff160361203a5760006040517f64a0ae920000000000000000000000000000000000000000000000000000000081526004016120319190612882565b60405180910390fd5b6000612048838360006118aa565b9050600073ffffffffffffffffffffffffffffffffffffffff168173ffffffffffffffffffffffffffffffffffffffff16036120bb57816040517f7e2732890000000000000000000000000000000000000000000000000000000081526004016120b29190612b51565b60405180910390fd5b8373ffffffffffffffffffffffffffffffffffffffff168173ffffffffffffffffffffffffffffffffffffffff161461212f578382826040517f64283d7b00000000000000000000000000000000000000000000000000000000815260040161212693929190612f27565b60405180910390fd5b50505050565b60006002600083815260200190815260200160002060009054906101000a900473ffffffffffffffffffffffffffffffffffffffff169050919050565b80806121ab5750600073ffffffffffffffffffffffffffffffffffffffff168273ffffffffffffffffffffffffffffffffffffffff1614155b156122df5760006121bb846117cb565b9050600073ffffffffffffffffffffffffffffffffffffffff168373ffffffffffffffffffffffffffffffffffffffff161415801561222657508273ffffffffffffffffffffffffffffffffffffffff168173ffffffffffffffffffffffffffffffffffffffff1614155b80156122395750612237818461133b565b155b1561227b57826040517fa9fbf51f0000000000000000000000000000000000000000000000000000000081526004016122729190612882565b60405180910390fd5b81156122dd57838573ffffffffffffffffffffffffffffffffffffffff168273ffffffffffffffffffffffffffffffffffffffff167f8c5be1e5ebec7d5bd14f71427d1e84f3dd0314c0f7b2291e5b200ac8c7c3b92560405160405180910390a45b505b836004600085815260200190815260200160002060006101000a81548173ffffffffffffffffffffffffffffffffffffffff021916908373ffffffffffffffffffffffffffffffffffffffff16021790555050505050565b61234283838361254e565b6123f657600073ffffffffffffffffffffffffffffffffffffffff168373ffffffffffffffffffffffffffffffffffffffff16036123b757806040517f7e2732890000000000000000000000000000000000000000000000000000000081526004016123ae9190612b51565b60405180910390fd5b81816040517f177e802f0000000000000000000000000000000000000000000000000000000081526004016123ed9291906134af565b60405180910390fd5b505050565b600080600090507a184f03e93ff9f4daa797ed6e38ed64bf6a1f0100000000000000008310612459577a184f03e93ff9f4daa797ed6e38ed64bf6a1f010000000000000000838161244f5761244e613338565b5b0492506040810190505b6d04ee2d6d415b85acef81000000008310612496576d04ee2d6d415b85acef8100000000838161248c5761248b613338565b5b0492506020810190505b662386f26fc1000083106124c557662386f26fc1000083816124bb576124ba613338565b5b0492506010810190505b6305f5e10083106124ee576305f5e10083816124e4576124e3613338565b5b0492506008810190505b612710831061251357612710838161250957612508613338565b5b0492506004810190505b60648310612536576064838161252c5761252b613338565b5b0492506002810190505b600a8310612545576001810190505b80915050919050565b60008073ffffffffffffffffffffffffffffffffffffffff168373ffffffffffffffffffffffffffffffffffffffff161415801561260657508273ffffffffffffffffffffffffffffffffffffffff168473ffffffffffffffffffffffffffffffffffffffff1614806125c757506125c6848461133b565b5b8061260557508273ffffffffffffffffffffffffffffffffffffffff166125ed83611853565b73ffffffffffffffffffffffffffffffffffffffff16145b5b90509392505050565b6040518060c0016040528060008152602001600073ffffffffffffffffffffffffffffffffffffffff1681526020016000815260200160008152602001600015158152602001600081525090565b6000604051905090565b600080fd5b600080fd5b60007fffffffff0000000000000000000000000000000000000000000000000000000082169050919050565b6126a681612671565b81146126b157600080fd5b50565b6000813590506126c38161269d565b92915050565b6000602082840312156126df576126de612667565b5b60006126ed848285016126b4565b91505092915050565b60008115159050919050565b61270b816126f6565b82525050565b60006020820190506127266000830184612702565b92915050565b600081519050919050565b600082825260208201905092915050565b60005b8381101561276657808201518184015260208101905061274b565b60008484015250505050565b6000601f19601f8301169050919050565b600061278e8261272c565b6127988185612737565b93506127a8818560208601612748565b6127b181612772565b840191505092915050565b600060208201905081810360008301526127d68184612783565b905092915050565b6000819050919050565b6127f1816127de565b81146127fc57600080fd5b50565b60008135905061280e816127e8565b92915050565b60006020828403121561282a57612829612667565b5b6000612838848285016127ff565b91505092915050565b600073ffffffffffffffffffffffffffffffffffffffff82169050919050565b600061286c82612841565b9050919050565b61287c81612861565b82525050565b60006020820190506128976000830184612873565b92915050565b6128a681612861565b81146128b157600080fd5b50565b6000813590506128c38161289d565b92915050565b600080604083850312156128e0576128df612667565b5b60006128ee858286016128b4565b92505060206128ff858286016127ff565b9150509250929050565b60008060006060848603121561292257612921612667565b5b6000612930868287016128b4565b9350506020612941868287016128b4565b9250506040612952868287016127ff565b9150509250925092565b6000806040838503121561297357612972612667565b5b6000612981858286016127ff565b9250506020612992858286016127ff565b9150509250929050565b600081519050919050565b600082825260208201905092915050565b6000819050602082019050919050565b6129d1816127de565b82525050565b6129e081612861565b82525050565b6129ef816126f6565b82525050565b60c082016000820151612a0b60008501826129c8565b506020820151612a1e60208501826129d7565b506040820151612a3160408501826129c8565b506060820151612a4460608501826129c8565b506080820151612a5760808501826129e6565b5060a0820151612a6a60a08501826129c8565b50505050565b6000612a7c83836129f5565b60c08301905092915050565b6000602082019050919050565b6000612aa08261299c565b612aaa81856129a7565b9350612ab5836129b8565b8060005b83811015612ae6578151612acd8882612a70565b9750612ad883612a88565b925050600181019050612ab9565b5085935050505092915050565b60006020820190508181036000830152612b0d8184612a95565b905092915050565b600060208284031215612b2b57612b2a612667565b5b6000612b39848285016128b4565b91505092915050565b612b4b816127de565b82525050565b6000602082019050612b666000830184612b42565b92915050565b612b75816126f6565b8114612b8057600080fd5b50565b600081359050612b9281612b6c565b92915050565b60008060408385031215612baf57612bae612667565b5b6000612bbd858286016128b4565b9250506020612bce85828601612b83565b9150509250929050565b60c082016000820151612bee60008501826129c8565b506020820151612c0160208501826129d7565b506040820151612c1460408501826129c8565b506060820151612c2760608501826129c8565b506080820151612c3a60808501826129e6565b5060a0820151612c4d60a08501826129c8565b50505050565b600060c082019050612c686000830184612bd8565b92915050565b600060c082019050612c836000830189612b42565b612c906020830188612873565b612c9d6040830187612b42565b612caa6060830186612b42565b612cb76080830185612702565b612cc460a0830184612b42565b979650505050505050565b600080fd5b600080fd5b7f4e487b7100000000000000000000000000000000000000000000000000000000600052604160045260246000fd5b612d1182612772565b810181811067ffffffffffffffff82111715612d3057612d2f612cd9565b5b80604052505050565b6000612d4361265d565b9050612d4f8282612d08565b919050565b600067ffffffffffffffff821115612d6f57612d6e612cd9565b5b612d7882612772565b9050602081019050919050565b82818337600083830152505050565b6000612da7612da284612d54565b612d39565b905082815260208101848484011115612dc357612dc2612cd4565b5b612dce848285612d85565b509392505050565b600082601f830112612deb57612dea612ccf565b5b8135612dfb848260208601612d94565b91505092915050565b60008060008060808587031215612e1e57612e1d612667565b5b6000612e2c878288016128b4565b9450506020612e3d878288016128b4565b9350506040612e4e878288016127ff565b925050606085013567ffffffffffffffff811115612e6f57612e6e61266c565b5b612e7b87828801612dd6565b91505092959194509250565b60008060408385031215612e9e57612e9d612667565b5b6000612eac858286016128b4565b9250506020612ebd858286016128b4565b9150509250929050565b7f4e487b7100000000000000000000000000000000000000000000000000000000600052602260045260246000fd5b60006002820490506001821680612f0e57607f821691505b602082108103612f2157612f20612ec7565b5b50919050565b6000606082019050612f3c6000830186612873565b612f496020830185612b42565b612f566040830184612873565b949350505050565b7f5468697320757365722068617320636c61696d65642061697264726f7020616c60008201527f7265616479000000000000000000000000000000000000000000000000000000602082015250565b6000612fba602583612737565b9150612fc582612f5e565b604082019050919050565b60006020820190508181036000830152612fe981612fad565b9050919050565b7f4e487b7100000000000000000000000000000000000000000000000000000000600052601160045260246000fd5b600061302a826127de565b91507fffffffffffffffffffffffffffffffffffffffffffffffffffffffffffffffff820361305c5761305b612ff0565b5b600182019050919050565b7f596f7520617265206e6f7420746865206f776e6572206f66207468697320686f60008201527f7573650000000000000000000000000000000000000000000000000000000000602082015250565b60006130c3602383612737565b91506130ce82613067565b604082019050919050565b600060208201905081810360008301526130f2816130b6565b9050919050565b7f5468697320686f75736520697320616c7265616479206f6e2073616c65000000600082015250565b600061312f601d83612737565b915061313a826130f9565b602082019050919050565b6000602082019050818103600083015261315e81613122565b9050919050565b7f4e487b7100000000000000000000000000000000000000000000000000000000600052603260045260246000fd5b600081905092915050565b60006131aa8261272c565b6131b48185613194565b93506131c4818560208601612748565b80840191505092915050565b60006131dc828561319f565b91506131e8828461319f565b91508190509392505050565b7f5468697320686f757365206973206e6f74206f6e2073616c6500000000000000600082015250565b600061322a601983612737565b9150613235826131f4565b602082019050919050565b600060208201905081810360008301526132598161321d565b9050919050565b7f596f752063616e6e6f742062757920796f7572206f776e20686f757365000000600082015250565b6000613296601d83612737565b91506132a182613260565b602082019050919050565b600060208201905081810360008301526132c581613289565b9050919050565b7f596f7520646f6e2774206861766520656e6f7567682062616c616e6365000000600082015250565b6000613302601d83612737565b915061330d826132cc565b602082019050919050565b60006020820190508181036000830152613331816132f5565b9050919050565b7f4e487b7100000000000000000000000000000000000000000000000000000000600052601260045260246000fd5b6000613372826127de565b915061337d836127de565b92508261338d5761338c613338565b5b828204905092915050565b60006133a3826127de565b91506133ae836127de565b92508282039050818111156133c6576133c5612ff0565b5b92915050565b600081519050919050565b600082825260208201905092915050565b60006133f3826133cc565b6133fd81856133d7565b935061340d818560208601612748565b61341681612772565b840191505092915050565b60006080820190506134366000830187612873565b6134436020830186612873565b6134506040830185612b42565b818103606083015261346281846133e8565b905095945050505050565b60008151905061347c8161269d565b92915050565b60006020828403121561349857613497612667565b5b60006134a68482850161346d565b91505092915050565b60006040820190506134c46000830185612873565b6134d16020830184612b42565b939250505056fea26469706673582212204f1d7c3fa48b2da202613cd1458b48dad2711c4237597ab311192f1f847a6b4e64736f6c63430008140033",
  "linkReferences": {},
  "deployedLinkReferences": {}
}